:4000000000800020110000001D0400001D04000008B5044B1A6803F53F5302331A6000F017FA00BFFA46004010B5054C237833B9044B13B10448AFF300800123237010BD24
:40004000B081FF1F00000000C4330000084B10B51BB108480849AFF300800848036803B910BD074B002BFBD0BDE81040184700BF00000000C4330000B481FF1F0881FF1F03
:40008000000000000122014B1A707047CC81FF1F38B5124C0123637000F0DAFF104D287001F01AF86870002000F0D8FF002001F019F800F02BFF0B4B1B78A378012B02D124
:4000C0000022A27002E00122044B9A7000F046FF00F00EFF00F05EFF38BD00BFCC81FF1F0C81FF1F6665004010B51D4B1B7893B15AB2002AB8BF52420A2A04DD184A937853
:40010000013B937007E00933DBB2122B03D8144A937801339370124B5B7893B15AB2002AB8BF52420A2A04DD0D4AD378013BD37007E00933DBB2122B03D8094AD378013393
:40014000D370074CA07800F0F7FDA07800F0FAFDE07800F069FEE07800F06CFE10BD00BF0C81FF1F10B5044601F020FD0028FBD0002384F83F30212384F83E30204602F0B2
:4001800033FD81B2204601F0EBFC10BD3038C0B2092801D801207047002070472D2801D101207047002070472C2801D101207047002070478154013200238354704700BF1B
:4001C00070B523280AD13A4B0024DC70394A1470394A14701C7101225A7166E0344B5B79012B5DD10546324BDC7814B1012C36D058E02F4B1E799EB9FFF7D0FF01280AD1C6
:400200002C4829463246FFF7D5FF294A137901331371344649E00022254B5A71344644E0FFF7B4FF012809D1224829463246FFF7C1FF1F4A13790133137136E02846FFF76A
:40024000B3FF012831D1012E03D10022184B5A712BE0174B621CDA7000221A7125E0FFF795FF01280AD1124C134829462279FFF7A1FF237901332371002416E02846FFF79E
:4002800093FF044601280FD1094B1B7923B90021074A51711C4608E00022054B5A7104E0002402E0002400E00024204670BD00BFCC81FF1F4082FF1F3C82FF1F10B562B672
:4002C00000F0F8FE00F03AFF00F03EFC00F0C2FC00F00EFD00F0CCFC01F0B2F801F006FA01F0C2F800F07EFD00F0F4FD00F000FE00F050FE3E4800F075FE3E4800F09AFEBE
:4003000001F01AFA0020012101F034FB3A4CA07800F012FDA07800F015FDE07800F084FDE07800F087FD002000F0D0FB00F0A8FC324C208000F0B0FC2080002001F098F8A0
:400340002F4C208001F0A2F880B2400080B2208000B241F64C5398420EDD012000F0B6FB284C20462849264BB3F9002002F018FC2046FFF7F7FE02E0002000F0A7FB1F4BA7
:40038000B3F9002040F6C4139A4209DD1F4B5B78012B14D100221D4B5A70FFF7A5FE0EE0002000F0C9FC002000F0CCFC002000F03BFD002000F03EFD0122144B9A71134B4E
:4003C0001B78012BB2D101F0C5F9FFF7F9FE012809D10C4C20460E490E4A0F4B02F0E0FB2046FFF7BFFE0022084B1A709EE700BF91000000850000000C81FF1F4882FF1F83
:400400004482FF1FFC81FF1FC8330000CC81FF1FE43300004082FF1F3C82FF1FFEE700BF08B5094B1A681044084BC31A802B02DC054B186005E002F073FB0C2303604FF0E2
:40044000FF32104608BD00BF1081FF1F4883FF1F08B5104E104D16E029686B68AC68002204E051F8040B43F8040B0432A242F8D1E868002203E0002143F8041B043282429E
:40048000F9D11035013E002EE6D102F04FFBFFF715FFFEE7010000004836000008B5134A134B1A60134A136843F40073136000230AE0032B03D8104A52F8231000E00F4953
:4004C0000F4A42F8231001332F2BF2D90D4B1A780D4B1A700A4A0D4B1A6000F0E5F800F0A3F900220A4B1A6008BD00BF0004FA050CED00E014ED00E0000000001D0400003F
:400500000080FF1FBC7600400481FF1F08ED00E00081FF1FFEE700BFF0B40022174611E050F82760F3B226F0FF0608E001EB420511F812406D78A5550132013BDBB2002BD1
:40054000F4D101372A2FEBD9F0BC7047114B1B78DBB203F00701104A11701B0901321370C0220E4B1A70E02210331A70CC2203F603231A7020230A4A1370022105321170B2
:40058000033213700C22074B1A704422A3F2E2231A707047CF0100496E5800400D510040235B0040585B004008B50A46002102F0EEFA08BD38B501222D4B1A8018232D492A
:4005C0000B7002310A802C4A1370042102321180023213700C210232118002321370332102321180023213700622244B1A705222A3F580731A70224B1B78DBB2214A13708B
:400600004FF4E162204B1A8041F25122023B1A80002419250CE01D4B1B7803F0010343EA440404F003044FF4F07000F0EDF8013D0DB1032CEFD115B90320FFF76BFF144AF0
:400640004FF48073138007231370002311490B7048200231087013700532137002220E4B1A700E4A137843F01F03137038BD00BF80400040824000408640004000430040BB
:400680000F010049A14600402242004025420040044000400640004001400040A243004008B502F069FA08BD38B572B6404A137843F00403137000240CE03E4963001A19D4
:4006C00052000A4423445B00C8589188FFF76CFF0134E4B2062CF0D900240FE03549A3001A1952000A4452F82C0F23445B000B4451689A8EFFF7D4FF0134E4B2012CEDD933
:400700004FF090402C49FFF707FF2C480421FFF74BFF2B482B490422FFF7C2FF2A4A137843F0020313701032137843F002031370264C237843F040032370A2F58632513A6A
:40074000137843F010031370214822490822FFF7A7FF214821490A22FFF7A2FF204821490822FFF79DFF204820490822FFF798FF1F4820490822FFF793FF84221E4B1A70C4
:40078000442203F520731A701C4A137843F0080313701B4D61232B70FFF70CFF81232B70FFF7D4FE174821460E22FFF779FF38BDE8460040FC330000AC00004800760040DD
:4007C000087600404C0F004803500140A043004002510040200F0048F0510040280F004812510040340F0048225100403C0F004832510040440F00485B04014022430040C0
:4008000000480040B04300400230800803D000BF01380046FCD17047EFF3108072B6704780F31088704700BF0B4A7F2313708021517007E0DA0002F1804202F5F042013B25
:40084000DBB21370002BF5D1DB0003F1804303F5F04300221A7070471481FF1F172815D831B103010A495A5C42F020025A5405E0030107495A5C02F0DF025A540001044AC8
:40088000835C43F00103835400207047012070471070004017280CD80001074BC1180A7942F004020A71C25C42F00102C254002070470120704700BF1070004017280BD89E
:4008C0000001064A835C03F0F10301F0070143EA4101815400207047012070471070004041F6FF73994201D14FF4005141F6FF739A4201D14FF40052172808D8C00000F18F
:40090000804000F5EC408180C280002070470120704700BF172805D8034B03EB0010417200207047012070471070004017281BD810B4C00000F1804404F5EC44D201D2B2B0
:4009400001F07F01114321709DF804201201D2B203F00F03134363709DF8083003F00F03A3700020E07001E0012070475DF8044B704700BF10B5FFF74FFF0A4B5B78182B07
:400980000BD9084A1478013B5370E30003F1804303F5F0431B78137000E0FF24FFF740FF204610BD1481FF1F10F0800F0CD111F4704F0BD1C00000F1804000F5F04001805A
:4009C0008270C37000207047012070470120704710F0800F08D1C00000F1804000F5F0408180C280002070470120704701BE704708B5034B1B7A03FB00F0FFF705FF08BD98
:400A00001C81FF1F70B504460E46074B1D681F2802D90020FFF7EAFF04F01F04103455F8240045F8246070BD08ED00E038B504460D46072902D90020FFF7D8FF1F2C02D909
:400A40000020FFF7D3FF04F01F0000F1604000F564406D01EDB2057038BD00BF134B1B78DBB20360124A127843EA02230360114A127843EA024303600F4A127843EA026370
:400A800003600E4B1B78DBB243600D4A127843EA022343600B4A127843EA024343600A4A127843EA02634360704700BF0301004904010049EC4600400201004901010049C0
:400AC000000100490501004906010049044A137803F0FD03400000F002001843107070472051004008B50A280FD00C2802D0082806D102E04FF4805209E04FF4807206E0F6
:400B00000020FFF773FF002201E04FF480620021094B198041F2883342F2107000FB0233064A82FB0302DB17C3EB2233044A1360044B198008BD00BF4C82FF1FAD8BDB68CA
:400B40005082FF1F4E82FF1F10B5FFF765FE04461F4A137843F0020313701032137843F002031370193A137843F0020313701032137843F00203137002F5AA52193213780E
:400B800003F0FE0343F0020313700422114B1A70013B1A7802F0BF021A701A7842F003021A700822053B1A700222A3F59753123B1A70094A137843F0080313700A20FFF7EC
:400BC00017FF0122054B1A602046FFF729FE10BDAB4300400E5900402F5B004080E200E010B504460A280DD00C2802D0082804D101E0C42207E0442205E00020FFF7F6FE95
:400C0000C42200E08422034B1A702046FFF76AFF10BD00BF0A59004008B5102000F06EF800200721FFF702FF00200749FFF7EAFE064A137843F0060313700C20FFF7D0FF21
:400C40000022034B1A8008BDED0C0000095900405482FF1F08B5054B1B7823B9FFF7DCFF0122024B1A70FFF76FFF08BDD381FF1F024A137843F0010313707047085900404B
:400C8000034B1B88034A1088181A00B2704700BFA25B00404E82FF1F114B1B889BB233B10F4B198809B201EB8101490001E00D4B19680D4B1A88821A12B242F2107000FB79
:400CC00002F0002A03DD01EBD1735B1003E001EBD17252105342034493FBF1F000B270474C82FF1F5082FF1F5482FF1F704700BF0122014B1A60704700E100E0034B1A78AE
:400D000000F0F80010431870704700BF86400040024A137843F080031370704773640040014B1870704700BF07650040014B1870704700BF47650040014B1870704700BF20
:400D400027650040014B1870704700BF37650040014B1870704700BF84650040014B1878704700BF64650040014B1878704700BF5765004008B501E0FFF7F6FFFFF7EEFFF9
:400D800010F0100FF8D108BD08B5144A137803F0C00343F00903137002F59272137843F001031370FF20FFF7BBFFFF20FFF7BEFF0020FFF7C1FF0020FFF7C4FF0020FFF7C2
:400DC000C7FFFFF729FD064A137843F010031370FFF726FDFFF7CEFF08BD00BF736400409465004008B5054B1B7823B9FFF7CCFF0122024B1A70FFF78BFF08BDD481FF1FCE
:400E0000024A137843F080031370704779640040014B1870704700BF0A650040014B1870704700BF4A650040014B1870704700BF2A650040014B1870704700BF3A6500405A
:400E4000014B1870704700BF89650040014B1878704700BF69650040014B1878704700BF5A65004008B501E0FFF7F6FFFFF7EEFF10F0100FF8D108BD08B5144A137803F097
:400E8000C00343F00903137002F22112137843F001031370FF20FFF7BBFFFF20FFF7BEFF0020FFF7C1FF0020FFF7C4FF0020FFF7C7FFFFF7B1FC064A137843F010031370CE
:400EC000FFF7AEFCFFF7CEFF08BD00BF796400409965004008B5054B1B7823B9FFF7CCFF0122024B1A70FFF78BFF08BDD581FF1F024A137843F080031370704772640040E3
:400F0000014B1870704700BF86650040014B1878704700BF6665004008B50146014801F0C9FD08BD24650040024B186820F07F40704700BF4465004008B50146014801F014
:400F4000B9FD08BD0465004008B501E0FFF7ECFFFFF7DCFF10F0080FF8D108BD10B50B4C2046FFF7D9FF2046FFF7E6FFFFF754FC074A137843F010031370FFF751FCFFF7A3
:400F8000E3FF0120FFF7BCFF10BD00BF749542009665004008B5054B1B7823B9FFF7DEFF0122024B1A70FFF7A3FF08BDD681FF1F014B1B685865704708ED00E04001C0B285
:400FC000014B1870704700BF05E400E02022014B1A60704700E100E02022014B1A60704780E100E010B50446FFF7F6FF2046FFF7DFFF0720FFF7E2FFFFF7E8FF10BD00BFC3
:40100000014B1B689865704708ED00E04001C0B2014B1870704700BF06E400E04022014B1A60704700E100E04022014B1A60704780E100E010B50446FFF7F6FF2046FFF77B
:40104000DFFF0720FFF7E2FFFFF7E8FF10BD00BF08B500F09FF8803840B208BD08B5002803DBC0B280F0800001E08038C0B200F08BF808BD024B187800F00F00704700BFBE
:4010800068640040014B1870704700BF8864004008B50F20FFF7F6FFFFF7ECFFFFF7BCFB034A137843F010031370FFF7B9FB08BD9864004008B500F0BBF8802000F064F8B1
:4010C000044B1B7813B90122024B1A70FFF7E0FF08BD00BFD781FF1F08B500F0D1F8803840B208BD08B5002803DBC0B280F0800001E08038C0B200F0BDF808BD024B18781D
:4011000000F00F00704700BF6B650040014B1870704700BF8B65004008B50F20FFF7F6FFFFF7ECFFFFF778FB034A137843F010031370FFF775FB08BD9B65004008B500F0D6
:40114000EDF8802000F096F8044B1B7813B90122024B1A70FFF7E0FF08BD00BFD881FF1F024A137843F08003137070477C640040014B1870704700BF87640040014B1878BC
:40118000704700BF67640040014B1870704700BF08640040024B1B78024B1878704700BF0864004048640040014B1878704700BF48640040014B1870704700BF2864004099
:4011C000014B1870704700BF3864004008B501E0FFF7EAFFFFF7D2FF10F0400FF8D108BD08B5114B1A7802F0F8021A701A7802F0FC021A70FFF7EAFF8020FFF7DBFF80208C
:40120000FFF7C2FF0020FFF7B3FFFFF7B7FF8020FFF7D6FFFFF700FB044A137843F010031370FFF7FDFA08BD7C6400409764004008B5054B1B7823B9FFF7D2FF0122024BC5
:401240001A70FFF78DFF08BDD981FF1F024A137843F080031370704777640040014B1870704700BF84640040014B1878704700BF64640040014B1870704700BF0764004082
:40128000024B1B78024B1878704700BF0764004047640040014B1878704700BF47640040014B1870704700BF27640040014B1870704700BF3764004008B501E0FFF7EAFF71
:4012C000FFF7D2FF10F0400FF8D108BD08B5114B1A7802F0F8021A701A7802F0FC021A70FFF7EAFF8020FFF7DBFF8020FFF7C2FF0020FFF7B3FFFFF7B7FF8020FFF7D6FF98
:40130000FFF78AFA044A137843F010031370FFF787FA08BD776400409464004008B5054B1B7823B9FFF7D2FF0122024B1A70FFF78DFF08BDDA81FF1F10B5022001214FF4B9
:40134000804241F6FF7300F085F9084C20700820012141F6FF72134600F09CF96070044800F0B6F9012000F0B9F910BDDC81FF1F9514000070B52C4C2078FFF78BFA6078E9
:40138000FFF788FA294B1B78FF2B03D1FFF7F2FA264B1870254D2A78104608210623FFF703FB214E341DA4B2287845F6A0312246FFF70EFB30782978FFF7ACFA6B78FF2B0A
:4013C00002D1FFF7D7FA6870184D6A78104608210723FFF7E9FA68782146154A92B2FFF7F7FA114C60786978FFF794FA20780121FFF734FA60780121FFF730FAFFF70CFA53
:401400000C4A137843F020031370FFF709FA0A4B1A7842F001021A701A7842F002021A700222064B1A6070BDDC81FF1F2C81FF1F5882FF1F906400407765004080E200E015
:4014400008B5074BDB6823B9FFF776FF0122044BDA60FFF78FFF00F0BDF8024B1B7808BDDC81FF1F6865004008B500F0C1F808BDC0F10300034B33F81030034A1088181A22
:4014800000B270475882FF1F6882FF1F08B500F0B7F808BD704700BF08B50A280FD00C2802D0082806D102E04FF4805209E04FF4807206E00020FFF799FA002201E04FF467
:4014C00080620021094B198041F2883342F2107000FB0233064A82FB0302DB17C3EB2233044A1360044B198008BD00BF6082FF1FAD8BDB686482FF1F6882FF1F10B5FFF7F4
:401500008BF90446194A137843F0010313701032137843F00103137002F5AA520832137803F0FE0343F0020313700422104B1A70013B1A7842F040021A701A7802F0FC02EE
:401540001A70C822053B1A700222A3F597530C3B1A70084A137843F0080313700A20FFF747FA2046FFF75CF910BD00BFAB43004006590040275B004010B504460A280DD0CD
:401580000C2802D0082804D101E0C42207E0442205E00020FFF72AFAC42200E08422034B1A702046FFF778FF10BD00BF0259004008B5064A137843F0060313700C20FFF736
:4015C000DBFF0022024B1A8008BD00BF015900406282FF1F08B5054B1B7823B9FFF7E8FF0122024B1A70FFF789FF08BDEC81FF1F024A137843F001031370704700590040E6
:40160000114B1B889BB233B10F4B198809B201EB8101490001E00D4B19680D4B1A88821A12B242F2107000FB02F0002A03DD01EBD1735B1003E001EBD17252105342034463
:4016400093FBF1F000B270476082FF1F6482FF1F6282FF1FF0B583B086460F4616461D460B4C01232370002200920192184671463A46FFF75BF9207831462A46FFF730F902
:4016800020780221FFF71AF9207803B0F0BD00BF2E81FF1FF0B583B086460F4616461D460A4C0023237000930193184671463A46FFF73CF9207831462A46FFF711F9207820
:4016C0000221FFF7FBF8207803B0F0BD2F81FF1F014B1B685864704708ED00E04001C0B2014B1870704700BF01E400E00222014B1A60704700E100E07222034B1A7020222F
:40170000033B1A70704700BF8D64004010B5FFF783F80446074A137843F020031370033A137843F01003137000F01AF82046FFF777F810BD9D64004008B5054B1B7823B91D
:40174000FFF7DAFF0122024B1A70FFF7DFFF08BDED81FF1F014B1878704700BF4E640040054A137843F0100313701032137843F010031370704700BFA2430040F8B5FFF7C0
:401780004BF80646404A137843F0010313701032137843F00103137001273C4B1F700225943B1D7002F5E2521B32137803F07F0313700020FFF71CF9354C237803F0F90352
:4017C0002370344A137803F0DF03137023783B4323703846FFF70CF92820FFF709F92E4B1A7802F07F021A701A7802F0BF021A7023782B4323702846FFF7FAF8237843F0F9
:40180000040323700023254A1370013213703046FFF706F817200721FFF708F917202049FFF7F0F818200721FFF700F918201D49FFF7E8F815200721FFF7F8F815201A4967
:40184000FFF7E0F828460721FFF7F0F828461749FFF7D8F803200721FFF7E8F803201449FFF7D0F804200721FFF7E0F804201149FFF7C8F80C200721FFF7D8F80C200E4948
:40188000FFF7C0F8F8BD00BFA54300409D6000409443004012600040F85100408460004039210000091F0000352100007D200000B5200000F12000004121000008B5214B45
:4018C00018700023204A1370204A1370204A1370204A1370204A1370204A1370204A1370204B4FF400021A604FF080721A604FF400121A6004221A6008221A6010221A602E
:4019000011B1012906D00BE0174A137803F0FE0313700AE0144A137843F00103137004E0114A137843F00103137003220F4B1A708022203B1A700120FEF766FF04220C4BFE
:401940001A7008BD8582FF1F8882FF1FA482FF1FA782FF1F9C82FF1FA682FF1FA982FF1F8482FF1F00E100E009600040286000401260004038B505460C46064B1B7823B923
:40198000FFF7FCFE0122034B1A7028462146FFF795FF38BDEE81FF1F00230A4A13700A4A13700A4A13700A4A13700A4A13700A4A13700A4A13700322094B1A708022203B57
:4019C0001A7070478882FF1FA482FF1FA782FF1F9C82FF1FA682FF1FA982FF1F8482FF1F2860004000EB40008000024B18444078704700BFAC82FF1F431EDBB2072B3BD83B
:401A0000F0B4074600EB40039B001C4C2344DB889BB2C3F500739A4207D900EB40039B002344DA88C2F5007292B200EB40039B00124C2344DB7843EA1223114D04012E199A
:401A40002B55D3B2737039B909E0CE5C3D010D4C665501339BB200E000239342F5D3430003449B00054A134400225A705A79D2B20001054B1A54F0BC704700BFAC82FF1FCB
:401A8000FC5F004078600040FE5F004010B4FF2400220EE00A4B9B5C03EB43039B0009490B449B78DBB2834201D1144602220132D2B2012AEED920465DF8044B704700BF45
:401AC0007482FF1FB482FF1F10B5204C2079FFF7DDFF237813F0800F0ED06378DBB2212B2FD11B4B07221A80C0EBC000194A1044586000F077FA10BD144B5B78DBB2202BE8
:401B000002D0222B10D01EE0114A07231380C0EBC00310490B4453600F4A135C43F00103135400F087FA10BD084B9B780B4A22F81030094A135C43F00203135400F012F9B2
:401B400010BD002010BD002010BD00BF006000409082FF1F3081FF1F6C82FF1F8082FF1F70B506460D460E4B1B780E4AD45CE4B204EB44039B000C4A13441B899BB28B422A
:401B800008D204EB44039B0013441D89ADB20020FEF72CFF204631462A46FFF72DFF70BDEF81FF1F7082FF1FAC82FF1F08B5034B1B78034AD05CFFF715FF08BDEF81FF1FE4
:401BC0007082FF1FC37803F0030390F9020000280FDA032B06D002F001030B48C15442F001020EE0C2F380030848C15442F0040207E0032B05D0C2F340030548C15442F035
:401C000002021046704700BF7082FF1F7482FF1F7882FF1F1C4B19781C4A13880B449BB2138000230EE01A4A51680978C9B21948C1545168013151600133DBB211880139A0
:401C400089B21180124A128892B20AB1072BEAD90D4A1278D2B2082A00D05BB10E490A7882F080020A700F210C4A117002210C4A117004E0022209490A7009490A70094A00
:401C80001370014A137070478482FF1F8682FF1F9082FF1F006000401A83FF1FA582FF1F8882FF1FA882FF1F0222074B1A708022064B1A700F22064B1A700023054A137014
:401CC000054A1370012070478882FF1F1A83FF1FA582FF1F8482FF1FA882FF1F08B5FFF799FF08BD10B4184B197801F00F010239C9B2164A13880B449BB21380002010E0ED
:401D0000134B5C68134A125CD2B222705A6801325A600130C0B20139C9B21A88013A92B21A800B4B1B889BB20BB10029E8D10A4B19700A4A137883F0800313700B22084B44
:401D40001A705DF8044B7047296000408682FF1F9082FF1F00600040A882FF1F1A83FF1FA582FF1F0623064A1370064A13708022054B1A700022054B1A700120704700BF99
:401D80008882FF1FA582FF1F1A83FF1FA882FF1F064B9B6843B1054B9A6810709A6804490988518000229A60704700BF9082FF1F8682FF1F08B5134B1A78D2B21A701B78B2
:401DC000DBB213F0800F02D00F4A137008BD0220FFF7DEFF0D4B1B7803F06003202B05D0402B06D043B900F091FC06E000F06CFE03E000F039FE00E0002010B90322024BBC
:401E00001A7008BD28600040A582FF1F0060004008B5084B1978084A13880B449BB213800022064B1A700120FFF7B2FF0322044B1A7008BD8482FF1F8682FF1F8882FF1FEF
:401E4000A582FF1F08B50B4B1B78DBB2042B06D0062B07D0022B0BD1FFF7DAFF08BDFFF741FF08BD0320FFF793FF0322024B1A7008BD00BF8882FF1FA582FF1F08B50022CE
:401E8000044B1A700120FFF783FF0322024B1A7008BD00BF8882FF1FA582FF1F08B50B4B1B7813F0FF0F07D0084A137843F0800307490B70002313700022064B1A70012013
:401EC000FFF766FF0322044B1A7008BDA682FF1F086000408882FF1FA582FF1F08B5094B1B78DBB2042B06D0062B07D0022B07D1FFF7F4FE08BDFFF7C1FF08BDFFF7CEFF3B
:401F000008BD00BF8882FF1F08B5284B1B78DBB213F0100F48D013F0800F0CD003F00F03012B16D1FFF746FF214B1B7813F0800F11D1012312E013F0400F03D0FFF7CEFF39
:401F400001230BE013F0200F07D0FFF77BFF012304E0002302E0002300E0002323B3134B1B7813F0800F1FD1124B1B78124A12781343124A13701278D2B29A4214D10C4B2C
:401F80001B78DBB2094A127812F0800F07D1084B1B78DBB2054A1370137803F00F03044A1278D2B29342EAD108BD00BF28600040A582FF1F1A83FF1FA882FF1F296000409D
:401FC0000022064B1A80064B9B682BB1044A916800230B7092685380704700BF8682FF1F9082FF1F08B50F4B1B889BB213B9FFF75BFE15E002220C4B1A7000220B4B1A7008
:40200000FFF7DEFF0A4AD179937943EA0123054A128892B29A4201D9024A1380FFF7FAFD012008BD9082FF1F8882FF1F1A83FF1F0060004008B504220B4B1A7080220B4BCF
:402040001A70FFF7BDFF0A4AD179937943EA0123084A128892B29A4201D9064A13800B22054B1A70012008BD8882FF1F1A83FF1F006000409082FF1FA582FF1F0A4A13789C
:4020800003F0FE031370094B9B7C094B1B7B03F00303012B04D0064AD37B83F08003D3730122034B5A7370470B600040FC5F0040AC82FF1F0B4A137803F0FD0313700A4B4F
:4020C00093F82230094B1B7E03F00303012B04D0064AD37E83F08003D3760122034B5A76704700BF0B600040FC5F0040AC82FF1F0D4A137803F0FB0313700C4B93F832305A
:402100000B4B93F8243003F00303012B06D0084A92F8273083F0800382F827300122044B83F82520704700BF0B600040FC5F0040AC82FF1F704700BF08B5FFF72DFC08BD24
:4021400008B500F0AFFC08BD70B588B0054603AC174E0FCE0FC43368237035B322232B7003236B7001A8FEF779FC002402231AE008AA224412F81C2C08A901EB121111F856
:40218000141CE954581C00212954981C02F00F0208AE324412F8142C2A54DA1CA9540134E4B20433DBB2212BE2D908B070BD00BF3C34000010B401223DE0114613010C24B9
:4021C0002148C45402EB42039B00204803445B7913F0FF0F12D002EB42039B0003441B7913F0800F04D01001194B03449C700AE01001174B03440820987004E01001144B1D
:402200000344802098704B000B449B000F480344DC88E4B208010C4901448C71D888C0F30720C871D888C0B20871DB88C3F307234B710132D2B2082ABFD9FF22054B1A7009
:402240005DF8044B704700BF70600040AC82FF1FFC5F00400A600040074B1B78074A02EBC30253681A7C824203D903EBC003586970470020704700BF8582FF1F8C34000026
:40228000F8B5404B1B7813F0FF0F79D03D4B18780138C0B2FFF7E0FF047AC2683A4B1878C0B200236AE01178814264D13749095CC9B25578A9425ED1917801F07F01D67835
:4022C00006F00306DFF8C8E04D000D44AD000EEB05074FF0000C87F803C092F802C087F804C092F803C00EF805C095883D8192F90250002D0DDA012E01D1072700E00D27CD
:402300004D000D44AD00224E35446F7101266E700CE0012E01D1052700E009274D000D44AD001B4E35446F7100266E70DFF868E00F010EEB07060125B57001FA05F5294468
:402340008900134D29440D89C5F307250EF807500D89EDB27570CE88F6B20E4D3D44AE71CE88C6F30726EE71CE88F6B22E71C988C1F30721697108320133DBB2A34292D399
:40238000F8BD00BFA782FF1F9C82FF1F1883FF1FAC82FF1F70600040FC5F0040034B1A78034B03EBC2035868704700BF8582FF1F8C34000008B5074B18780138C0B2FFF73A
:4023C0004BFF28B14268127900EBC203586908BD002008BDA782FF1F2DE9F84300220EE06D4E53009D18AD00741900217155A170E1702181A172617061710132D2B2082A3B
:40240000EED940B90AE000226449CA546449CA540133DBB200E00023012BF4D9614B1B7813F0FF0F00F0B5805E4B18780138C0B2FFF712FF80464368DB7913F0400F05D031
:40244000594A137843F00103137004E0564A137803F0FE03137098F808704FF0000901266CE0D8F80C50002464E0AB7803F07F039E425CD1314606EB46039B0046480344D1
:402480001B899BB2A888834205D206EB46039B00414A134418812B784048C35CDBB26878834244D195F802C03B484B000B449B0000EB030E8EF804C095F803E000F803E0E6
:4024C000EB7803F0030395F90200002811DA012B02D14FF0070C01E04FF00D0CDFF8B8E04B0058188000704480F805C00123437012E0012B02D14FF0050C01E04FF0090C6B
:4025000025484FEA410E0EEB01039B00034483F805C0194600234B70AB790A2B01D0022B05D1284631464A46FFF74CFB814608350134E4B2BC4298D30136F6B2082E90D9B5
:40254000D8F80C0000220CE0837803F07F0310F8084B03EB43039B0014490B449C700132D2B2BA42F0D3FFF725FF114B1860002001220AE0084C5300991889002144C88000
:402580000B89184480B20132D2B2082AF2D9FFF711FEBDE8F88300BFAC82FF1F1883FF1F8C82FF1FA782FF1FA982FF1FB482FF1FA082FF1F08B5154B1A7902F07F02531E78
:4025C000DBB2072B20D8530013449B0010490B44997841F0010199700021D970597841F0020159701B7913F0800F05D01201094B13448D229A7004E01201064B13448922F6
:402600009A70FFF7AFFB08BD002008BD00600040AC82FF1FFC5F0040264B1B7903F07F035A1ED2B2072A43D810B55A001A44920021490A44917801F0FE0191700021D170DA
:4026400019017F241D484454517801F0FD015170127912F0800F14D003EB4302920016490A445278D2B2012A05D11B0102461A440C23937019E01B01104A1A440D23937072
:4026800013E003EB430292000B490A445278D2B2012A05D11B01094A1A440823937004E01B01064A1A4409239370FFF75BFB10BD0020704700600040AC82FF1FFC5F004022
:4026C00010B50E4B1C79E4B20D4B18780138C0B2FFF7C2FD43681B799C4201D9022C0AD8084A135DDBB208490B55044B9B78DBB21355012010BD002010BD00BF00600040B1
:40270000A782FF1F1883FF1F8C82FF1F10B5964B1B78DBB20021954A118013F0800F00F0B380914A5278D2B20A2A00F27981DFE812F06F00770177017701770177010B007D
:40274000770198007701A000874BDB78DBB2012B09D1FFF723FE4268844B5A6012221A80FFF740FC10BD804BDB78DBB2022B13D17D4B9878FFF770FD002800F053814268D5
:402780007A4B5A605A68D1785A68927842EA01221A80FFF727FC10BD734BDB78DBB2032B05D032E00A7811440133DBB201E000236F496D4A9278D2B29A4203D90A7812F06C
:4027C000FF0FEFD1684B9B78DBB2EE2B00D16949654B9B7813F0FF0F0BD0634B9B78DBB2654A127C934204D1644C2046FFF7ACFC21460B7813F0FF0F00F016810B785B4ADA
:4028000013805160FFF7EEFB10BD00F05DF910BD13F0030317D0022B40F0088153490B80514B1B7903F07F0303EB43039B00544A13449A78D2B2534B1A7000225A704B60DA
:40284000FFF7D0FB10BD494902230B804E4B1A78D2B24C4B1A7000225A704B60FFF7C2FB10BD424B01221A80484A5A60FFF7BAFB10BD3E4A012313803B4B1B7944490B445E
:402880005360FFF7AFFB10BD374A5278013A0A2A00F2CE80DFE812F04B00CC009700CC000B00CC00CC00CC001300CC0030002E4B9B78DBB2374A1370FFF754FA10BD2A4B9A
:4028C0009B7803F0FF041BB1601EC0B2FFF7C4FC04B110B9002C40F0AD802C4B1B78DBB29C4206D0294B1C7001202B4B1870FFF773FDFFF737FA10BDFFF7E2FE002800F0A4
:402900009B80194A1379DBB21279D2B223490A70234AD25C1E49C95CD3B28B4204D001221D4B1A70FFF7ACFCFFF71CFA10BD03F00303012B36D04BB1022B7FD10A4B9B7826
:4029400013F0FF0F7CD1FFF767FE10BD064B9B78DBB2012B76D10C4A137803F0FD031370FFF700FA10BD00BF006000409082FF1FF434000078340000D83500002083FF1F28
:40298000AC82FF1FF081FF1FA982FF1FA782FF1F1883FF1FA682FF1FA482FF1F9C82FF1F8C82FF1F2D4B1B79DBB2012B4CD82B4B98781B79DBB22A49CA5C22EA0002CA54AC
:4029C000FFF7D0F910BD03F00303012B17D04BB1022B3BD1214B9B7813F0FF0F38D1FFF7E9FD10BD1D4B9B78DBB2012B32D11D4A137843F002031370FFF7B4F910BD174B12
:402A00001B79DBB2012B27D8144B98781B79DBB21349CA5C22EA0002CA54FFF7A3F910BD002010BD002010BD002010BD002010BD002010BD002010BD002010BD002010BD45
:402A4000002010BD002010BD002010BD002010BD002010BD002010BD002010BD006000401C83FF1FA982FF1F08B50B4B1B7813F0800F0CD0084B5B78DBB2012B09D1074B16
:402A8000074A5A6012781A80FFF7ACFA08BD002008BD002008BD00BF006000409082FF1F50340000024B1878C0F38010704700BF8F450040CBB20370C1F307234370C1F3CA
:402AC00007418170704700BF08B5124B1B7803F00303012B02D0022B04D00FE00D4B1B79DBB20CE00B4B1B7903F07F0303EB43039B00094A13449B78DBB200E00023074A62
:402B00001268D35C022B02D1FEF7DEFF08BD002008BD00BF00600040B482FF1FA082FF1F014B1868704700BFAC81FF1F0E4B70B51E460E4C0025E41AA410A54204D056F8D4
:402B4000253098470135F8E700F06CFD084B094C1E46E41AA4100025A54204D056F8253098470135F8E770BD3036000030360000303600003836000010B5431E0A4491426A
:402B800004D011F8014B03F8014FF8E710BD03460244934202D003F8011BFAE7704700000EB400B54FF402719CB0ADF814106FF00041049107914FF6FF711DABADF81610B9
:402BC000084953F8042B02900690086802A9019300F06CF8029B00221A701CB05DF804EB03B07047AC81FF1F034613F8012B002AFBD1181A013870472DE9F0478E6882462E
:402C0000B3420C469046994640D38A8912F4906F3AD02568096902236F1A656905EB450595FBF3F57B1C4B449D4238BF1D4653050FD5294600F030FB064698B121693A4672
:402C4000FFF79AFFA38923F4906343F08003A38113E02A4600F076FB064670B95046216900F0D6FA0C23CAF80030A3894FF0FF3043F04003A381BDE8F08726613E4426609C
:402C80004E466561ED1BA560B14500D24E4632462068414600F0A0FAA36800209B1BA36023681E442660BDE8F08700002DE9F0439DB003938B8906461C060D4690460CD515
:402CC0000B6953B9402100F0E7FA2860286110B90C233360CCE040236B610023099320238DF8293030238DF82A3043461C4613F8012B1AB9B4EB08090FD002E0252AF5D11E
:402D0000F8E73046294642464B46FFF775FF013000F0A980099B4B4409932378002B00F0A28000234FF0FF3204930793059206938DF853301A9304F101084446DFF848917A
:402D400021784846052200F039FA08F10108049B30B1C9EB00000122824013430493ECE7D80644BF20228DF85320190744BF2B228DF8532022782A2A02D0079923460EE0CD
:402D8000039A0134111D12680391002ABBBF524243F0020307920792B8BF04930AE01C4622780133303A092A03D80A2000FB0121F5E7079123782E2B1AD163782A2B0AD11E
:402DC000039B02341A1D1B680392002BB8BF4FF0FF3305930CE0611C00220C4623780131303B092B03D80A2000FB0232F5E70592DFF8988021784046032200F0DFF938B131
:402E0000049AC8EB00004023834013430493013421781A48062204F101088DF8281000F0CDF988B1164B33B9039B073323F007030833039313E003AB0093304604A92A4652
:402E4000104BAFF3008007E003AB0093304604A92A460C4B00F092F8421C074603D0099B3B44099341E7AB895B0601D4099801E04FF0FF301DB0BDE8F08300BFF8350000B9
:402E800000000000F92B0000EE350000F43500002DE9F84391461F468A680B6906469342B8BF1346C9F8003091F843200C46DDF8208012B10133C9F800302368990642BF07
:402EC000D9F800300233C9F80030256815F006051CD094F843302268003318BF012392061FD5E118302081F843005A1C94F845102244023382F8431013E03046394604F13E
:402F000019020123C047013007D00135E368D9F800209B1A9D42F0DBDBE74FF0FF30BDE8F8833046394604F14302C0470130F4D02268D9F80050E36802F00602042A08BF12
:402F40005D1B2269A3680CBF25EAE57500259342C4BF9B1AED184FF00009A9450ADA3046394604F11A020123C0470130D5D009F10109F2E70020BDE8F88300002DE9FF4144
:402F80000C461746227E98466E2A06460A9B01F1430100F0B08012D8632A23D00AD8002A00F0BD80582A40F0CC8084F84520DFF804E257E0642A1ED0692A1CD0C1E0732A56
:402FC00000F0B18009D86F2A2ED0702A40F0B980226842F0200222603FE0752A24D0782A3BD0AEE01A6804F14205111D1960136884F84230A9E020681A6810F0800F02D026
:40300000101D186008E010F0400F02F10400186002D0B2F9003000E01368002B3EDA2D225B4284F8432039E020681A6810F0800F02D0101D186007E010F0400F02F10400D9
:40304000186001D0138800E01368227EDFF864E16F2A0CBF08220A221CE07822DFF858E184F845202268186812F0800F00F104051D6003D1550601D5038800E00368D00750
:4030800044BF42F0200222601BB9226822F0200222601022002084F8430002E0DFF814E10A226568002DA8BF2068A560A4BF20F00400206003B965B10D46B3FBF2F002FBA1
:4030C00010331EF8033005F8013D03460028F4D100E00D46082A0BD12368DA0708D5236962689A42DEBF302305F8013C05F1FF35491B21612EE025681A6815F0800F606963
:4031000003D0151D1D60136808E015F0400F02F104051D60136801D0188000E01860002323610D4616E01A68111D1960156800212846626800F042F808B1401B60606368E9
:4031400004E004F1420584F8422001232361002384F84330CDF800803046214603AA3B46FFF796FE013002D14FF0FF301FE0304639462A462369C0470130F5D023689B0731
:4031800005D4E068039B9842B8BF18460FE00025E368039A9B1A9D42F3DA3046394604F119020123C0470130DED00135F0E704B0BDE8F081FF3500001036000010B5C9B2A4
:4031C00002449042034605D01C7801308C42F8D1184610BD002010BD814210B501EB020301D3421E0BE09842FBD28118D21AD34204D013F8014D01F8014DF8E710BD994251
:4032000004D011F8014B02F8014FF8E710BD000030B500293CD051F8042C0B1F1D49002AB8BF9B180A680C4612B95A600B6030BD93420DD219685818904201BF5A58521804
:403240001A60426823605A6030BD994203D80A4651680029F9D1146815199D420AD11B682344D0188842136012D10868034413604B680CE002D90C23036030BD1C68181920
:40328000884201BF08684968001918605960536030BD00BFF881FF1F70B5CC1C24F0030408340C2C38BF0C24002C064603DA0C233360002070BD8C42F9D3204A1368104627
:4032C0001946A1B10A68121B0ED40B2A03D90A608B188C501FE08B420BBF5A684A6802605A6018BF0B4616E00B464968E9E7144D2B681BB9304600F04BF8286030462146B6
:4033000000F046F8421C0346D1D0C51C25F0030585420AD11C6003F10B001A1D20F00700821A0AD05142995070BD3046E91A00F02FF80130BBD02B46ECE770BDF881FF1F3B
:40334000F481FF1FF8B5074615460E4621B91146BDE8F840FFF7A0BF1AB9FFF759FF2846F8BD00F025F8A8420ED238462946FFF793FF044650B131462A46FFF7FDFB384680
:403380003146FFF745FF01E03046F8BD2046F8BD38B5064C0023054608462360FDF740F8431C02D1236803B12B6038BD4483FF1F51F8040C0028BEBF091851F8043CC01835
:4033C00004387047000000004261747465727920566F6C74616765203D202025646D760D0A00000052535349203D2025732C20496E646578203D2025730D0A004051004056
:403400003000C0510040100000000140001080140140800700400140000A004C01400002105001401000000000140140900E0048800000500140100F0048100030313233FA
:40344000343536373839414243444546000000002800000000010400010000000000000000014359555342000000303030303100000000000000000012034D0053004600CF
:40348000540031003000300001000000010000009434000001000000D8350000000000000000000001000000AC340000010000009435000003000000D83400000000000095
:4034C00000000000000000000000000000000000D4340000020A000000008103080002000100820240000A000100030240000A0002030000040309042C0343007900700097
:4035000072006500730073002000530065006D00690063006F006E0064007500630074006F00720010035500530042005500410052005400380343004400430020004300AE
:403540006F006D006D0075006E00690063006100740069006F006E00200049006E0074006500720066006100630065002603430044004300200044006100740061002000DA
:4035800049006E007400650072006600610063006500000009024300020101C032090400000102020103052400100104240202052406000105240100010705810308000ABD
:4035C00009040100020A0000040705820240000007050302400000001201000202000008B40432F201000102800100004300232D302B2000686C4C006566674546470030AA
:40360000313233343536373839414243444546003031323334353637383961626364656600000000F8B500BFF8BC08BC9E4670474D0000009D040000F8B500BFF8BC08BC65
:403640009E46704729000000583600000881FF1FA800000098010000000000000A0A595D4883FF1F7F800000030000000000E02EC05D00001800000000366E01FFFFFFFF77
:4036800000C2010000000800C201000000080000A120000000000200000000000000000000000000000000000000000000000000000000000000000000000000EC35000090
:4036C0000000000000000000000000000000000000000000000000000000000000000000000000000000000000000000000000000000000000000000000000004C81FF1FDF
:403700000000000000000000000000000000000000000000000000000000000000000000000000000000000000000000000000000000000000000000000000000000000089
:403740000000000000000000000000000000000000000000000000000000000000000000000000000000000000000000000000000000000000000000000000000000000049
:403780000000000000000000000000000000000000000000000000000000000000000000000000000000000000000000000000000000000000000000000000000000000009
:4037C00000000000000000000000000000000000000000000000000000000000000000000000000000000000000000000000000000000000000000000000000000000000C9
:020000040003F7
:0200000480007A
:400000000145004008520040025B0040066400400465004019000140330101403F02014042030140340401404405014048060140550701403B080140500901404B0A0140F6
:40004000460B01403A0C01404F0D01403B0E0140330F01401E1401405C150140581601404E1701403D180140571901404E1A0140571B01400E400140134101400B420140EE
:4000800005430140014401400C450140104601400B470140094801400A490140154C0140054D014005500140035101407E020080084009C010201160140419027C402784A3
:4000C0002F848003846F876F880F8A388D72840F860D890F8B0F130115021A01220226042D023001310234023501360439023F015602573E580459045B0C5C335D305F0160
:40010000D804D904DC33DF010128052908400AA40F8410011101120413081440160419611A801B40210222302304280229282B402C402D282F40300E3250354538083A049C
:400140003B803F0458046102680269856A066B0470907308794089408D20C076C25FC45FCAEFCCDFCE4AD602D801DE08E20211031204170319021A011B011D032103220272
:4001800026082703290330083202340435013601370252805608580459045B045C305D905F0182028302850889018D808E108F40900891049520971099409A089B809D02F8
:4001C0009E04A002A308A510A601A720A804AB04AC01AF01B1FFB21FB808BE04BF01D280D804D904DB04DC03DD20DF010080010802840AA20B040E8810451101121016A02D
:4002000019081D801E881F1A208025102701288D29652A042B202D212F2030903291331435493710382039853A103B045E4067027102774082E08E408F049020918492A2B0
:40024000954099619B049C419D0C9E04A080A408A804B080B220B402C00FC25FC43FCAEFCCFFCE0FD610D810E201E441EA04EC010101030204180520080209040B080C38FD
:400280000D010F02103012081430152019081A091B041D041F0821202428250226102701281029012A202B122D042E062F0830023110320433033438350C36013720398037
:4002C0003B283E013F40540F580459045B045F05D804D904DC33DF01001401800508060409040A080B400C441209130414811710181019011A081B402141222829022A0141
:400300002B1A2C402D0831803220330434893710380439063A803B203D204E084F2059115A405B08610462107904851089088B089322954098DD99089A809B509E04A18209
:40034000A30AA408AD01B301B510C067C2AEC4D7CACFCCFECE2FD60FD806DE02EA08EE3314011B0121012A032F02320233033601580C59045C935F01840E85068810891005
:400380008A028C188D058E049308961E970898189A029B109C019D03A108A601AA20AC16AD06AE08B020B108B401B507B61EB710B920BE10BF41C041C106C52EC6C4C70337
:4003C000C81FC9FFCAFFCBFFCDA0CF01D018D280D40FD804D904DA04DB04DF05E040E280E440E540E680E840EA80EC40ED20EE8000040180020809040A020B040E20111097
:4004000013481720184019C01A041B801E221F40200421012240272029402B402F4130A031013204372038203B444141430C49064B10525053085A845B12611871017920C1
:400440007D4081148224850487088A088B028C208D108E018F109190920893029404954096409744985599089B409D869E149F04A102A228A340A408A514B008B228B51279
:40048000C007C227C447CA99CC2FCE0ED009D204D60FD806DE14E21DEA0800940260060F0B02143016C9189E1A601CCF1E301F05247329052CFD2D042E022F01310235043F
:4004C00036FF37013E403F504021410445E24603474C483749FF4AFF4BFF4DA04F015018540F580459045A045B045C305F016040628064406540668068406A806C406D2099
:400500006E80D280D804D904DB04DC33DD20DF01000A0112020804080501081A0C400D040E040F101102130C140117081F8025012652282A29022D062EC02F043010320226
:4005400034123608374039103C083D2245A046804C50550256405705580459085C015D085EA07002780879048101820286408C908D028F0491189265932098029C459D01A2
:400580009E389F0CA001A138A482A710B001B104B310B508C03EC2EEC4A8CAFFCCF5CEE4D0B0D6F0E010E240E650E8E0EA08EC8005E3070C09820FE3100111C3150F17E0FB
:4005C00019411B101DEF1E042108250C2607290C2BE32D042E08300231C03201332C3404350F360837103B2854185604580459045B045C425D405F01804082088402859E92
:400600008760883889308BC98C048F0F90589220940295FD9605970298609A109C609E08A1CFA330A594A678A760A973B004B1FFB202B478B601B808BB80BE01BF01D80490
:40064000D904DC40DF01054907080A810C410E040F2010021210150819101AA11D481E041F022004222523022581270129A42A022C842F503180320633103704381439805C
:400680003D843E685A0260806280630489128B028D109010918093049504960897A0980299A49A029B109C849D029E209F07A170A282A501A620AC92B640B712C0F0C2F989
:4006C000C425CAEFCC4FCE7ED601D80DE080E680EE0102010A04100126033002320434013E105280580459045B045C305F01828384E7857E861888DC897E8A228CFF8D0232
:4007000090049110936095489714985C9AA19B019C10A204A408A701A818AD24AF18B040B170B220B30CB41FB501B698B702B808BA20BE01BF10D602D713D804D904DB048C
:40074000DC44DD40DF01000A012002200301051007400A490E8010201312170819691D201E90201221482203230429082B022C022D122F08310832013320344036013968F9
:400780003E083F20590169687030710472037310774080028110821083088C108D9094109514960297A098409A089B089C049D429E209F15A010A140A281A330A405A501BC
:4007C000A708A802AA01B020B1C0B208C05FC21BC42ECABACC97CE6ED601E410E604E820EA14EC8003040B0213011B021F04350337043F50406541044203440245C046E0B8
:40080000480A49FF4AFF4BFF4C624DA04EF04F41500C580459045A045C335D045F016640670269106A306B106D106E106F1283088551872289248B408E018F0795679710FC
:400840009B10A170A304A561A702A937B201B570B70FD804D904DC03DF010020012205A208520D400F2611101304140215101C201D082004228025402610270828122906DD
:400880002B182C042F5031483201331036103704381039803A083B063D863E204024430148054B02532088408B018D04C0DAC2EBC4C6CAEFCC6FCEFFD007D20CE090E202FC
:4008C000870297029D04A705B101B504B702C014C9FFCAFFCBFFCD83CE03CF01D018D804D904DA04DC23DD09DF01E040E240E440E540E680E880EA80EC80EE80004401021D
:4009000003080508060609080A020B800C030E201220132014041702180419161A021B0820A0210A23402590278029142B822D012F603080310A3220360837803880390119
:400940003A203B043D203E14428043404680474059415A188082820283028410861089408A408C048D8090C0920C93849740980599499AE69B609C809D04A080A238A3A25A
:40098000A440A548A850A940AB20AC40AF02B180B310B504C0EFC23DC456CA4FCC5FCE4FD099D60FE00CE210E40CE601E802EA25EC24EE02020212021A0126013002360188
:4009C0003E01401545EC4602480749FF4AFF4BFF4D834E034F01501854015604580459045A045B045C325D995F016040624064406540668068806A806C806E8082088701AF
:400A000089068D0A92029404950C9B109C08A50CAA05AB10B008B101B201B310B402B50EB604B920BE01BF04C020C106C5D2C650C701C81BC9FFCAFFCBFFCDA0CF04D01869
:400A4000D203D302D804D904DA04DB04DC02DD32DF01E040E2C0E440E540E6C0E8C0EAC0ECC0EEC00240074009420A200E040F801208161019601A641D801E8021102205C3
:400A8000230829242C542E0230203118349135083610388039283D2042044740482049114D054F8052185320568057405D055E80650268086940850287048B4890409108AF
:400AC0009420956096429754985599089A649B409F02A080A112A220A382A408A884A908AB08B140C018C25DC422CAE6CCD6CE2ED014D214D6D0D880E202E804EA03EC41BE
:400B00000010010E0404050206080704081009080A010C040D0E0E0810081102120413041410170E1B011E021F20200123102708280429402A082D40300C314032013320F3
:400B40003402351E36103701388039023A023E445401580459045B0C5D305F0183028B048F019302B104B302B501BF04D407D804D904DB04DC03DD20DF01000A01140202ED
:400B80000420052006C00712080A0C040D020F021010142015261C041DA31F082111222424082640275A2D202E802FA0300235013660370838253B883D013E063F904001F1
:400BC00042014401460259025A685C8079407B027F018604874088048A018B028D1090209110922593349408970898829A409C3D9D019E389F44A001A108A202A3E1A4841C
:400C0000A580A840AB58B040B320B401B704C0FFC2BCC454CAF0CCF1CEFDD61FDE10E208E480E880EA02EC400001040105010A010B0110011101140119011D0124012B0145
:400C40002C012D01360137014010410545D046504721483A49FF4AFF4BFF4DA04F045018580459045A045C335D025F01604062C06440654066C068C06AC06CC06EC0840234
:400C80008514870A8A088B018D0E910195019608991E9E04A008A118A306A506A607A718A90AAB14AF20B002B201B301B404B51EB608B720BE40BF04D40FD804D904DB045B
:400CC000DC02DF0100060110034005040708080A0D080E010F1010101202150817011A021D141E401F80224026202725288A2B802C802D802E202F10301032023360362028
:400D00003709380439143D403E083F104201480249025002510452105C805D015F2480068320848889808B018E609151920193249504964298029A089B089C189D129E30D5
:400D40009F04A001A108A202A482A920AB05AC01AF08B308B608C06EC2ACC435CAFCCCEDCE76D008D208D6F0E4C0E620E810EC20EE80130816803080330135203608380812
:400D800039203E808510C430CCF0CE70E24001080710314036406001640183108F0894089B089D209F01A480AA08C030CC30D6C0E020EA20850899089D609F01A480A804E7
:400DC000AE40B001B401E410EEC08D209D609F01AC80EA10854001806020650881409F40A540A740AB40B740C002D803EA08181027408C20941095409C209D089F40A540A4
:400E0000A740A810B580C608C801E002EE0209480F804601954096019D08A540A740AE01C20ED0042080854094049D40AF01B404C840E610EA401804500459208C049404A3
:400E40009920B040B120C640D4A0014008041E01340161046480840488808D08954096019D08AD08B601C002C208C601CC01D803E006EC028D049D04B001E008EC04100D4B
:400E800011011A0D1B011C0D00AF013E100A000020704100400A3E051803040C20B0C0400E0F000018C00220000000F020074000000C000310C00210168008100005000A37
:400EC000800F1EF0600001000000200000000000140000000000000000FFFFFF000000011800000007000000040404040029000140004000404080008000800080008000E9
:400F0000000000000000000000000000000000001D010000000000000D0109011D0019000300000000C0D4004000000000000000C00000001400000000C0E0000462620032
:400F40006000000000030300030000000001000000000000000000000000000000000000000000000000000000000000000000000000000000000000000000000000000007
:400F80000000000000000000000000000000000000000000000000000000000000000000000000000000000000000000000000000000000000000000000000000000000031
:400FC00000000000000000000000000000000000000000000000000000000000000000000000000000000000000000000000000000000000000000000000000000000000F1
:4010000000000000000000000000000000000000000000000000000000000000000000000000000000000000000000000000000000000000000000000000000000000000B0
:401040000000000000000000000000000000000000000000000000000000000000000000000000000000000000000000000000000000000000000000000000000000000070
:0200000490006A
:0400000000004005B7
:0200000490105A
:04000000BC90ACAF55
:0200000490303A
:02000000E58E8B
:0200000490402A
:4000000000000000000000000000000000000000000000000000000000000000000000000000000000000000000000000000000000000000000000000000000000000000C0
:400040000000000000000000000000000000000000000000000000000000000000000000000000000000000000000000000000000000000000000000000000000000000080
:400080000000000000000000000000000000000000000000000000000000000000000000000000000000000000000000000000000000000000000000000000000000000040
:4000C0000000000000000000000000000000000000000000000000000000000000000000000000000000000000000000000000000000000000000000000000000000000000
:0200000490501A
:0C00000000012E16106900012E2EF5F7ED
:00000001FF