:400000000080002011000000190300001903000008B5044B1A6803F53F5302331A6000F095F900BFFA46004010B5054C237833B9044B13B10448AFF300800123237010BDB1
:40004000B081FF1F00000000302A0000084B10B51BB108480849AFF300800848036803B910BD074B002BFBD0BDE81040184700BF00000000302A0000B481FF1F0881FF1F3D
:40008000000000000122014B1A707047CC81FF1F38B5124C0123637000F054FF104D287000F094FF6870002000F052FF002000F093FF00F059FE0B4B1B78A378012B02D103
:4000C0000022A27002E00122044B9A7000F074FE00F03CFE00F08CFE38BD00BFCC81FF1F0C81FF1F6565004008B5012000F056FC002000F053FD002000F056FD002000F0A1
:40010000C3FD002000F0C6FD0122014BDA7008BDCC81FF1F10B51D4B1B7893B15AB2002AB8BF52420A2A04DD184A9378013B937007E00933DBB2122B03D8144A93780133D8
:400140009370124B5B7893B15AB2002AB8BF52420A2A04DD0D4AD378013BD37007E00933DBB2122B03D8094AD3780133D370074CA07800F013FD002000F016FD002000F016
:4001800083FDE07800F086FD10BD00BF0C81FF1F10B50E4C04FB00F4002000F057FE204600F048FE002000F051FE094CA07800F0F5FC002000F0F8FCE07800F065FD00202F
:4001C00000F068FD00F022FE10BD00BF803801000C81FF1F30B583B062B600F0E5FE00F027FF00F019FC00F09DFC00F0B3FC00F0A7FC01F09FF801F0B7F901F0AFF800F020
:4002000021FD00F095FD00F0A1FD00F0F1FD00F02DFE274800F060FE264800F085FE264802F014FB01F0C6F90020012101F0DAFA224CA07800F0B2FCA07800F0B5FCE0789E
:4002400000F022FDE07800F025FD002000F0A6FB002300E001331A4A9342FBD101A8012100F034F801A8002100F046F801A8022100F042F801A8002100F03EF8002000F043
:400280008DFB00252C460F4B9C4209DC0E4B5B78012B0BD100220C4B5A70FFF73BFF05E025B94FF4B470FFF773FF01250134EAE79100000085000000E90000000C81FF1FF3
:4002C000A08601003F420F00CC81FF1F38B504460D4600230360082002F028FB206018B10560236800225A6038BD00BF00E018464368002BFBD1704738B50D460068FFF791
:40030000F5FF0446082002F011FB60600560636800225A6038BD00BFFEE700BF08B5094B1A681044084BC31A802B02DC054B186005E002F0CFFA0C2303604FF0FF321046D5
:4003400008BD00BF1081FF1FF882FF1F08B5104E104D16E029686B68AC68002204E051F8040B43F8040B0432A242F8D1E868002203E0002143F8041B04328242F9D1103568
:40038000013E002EE6D102F0ABFAFFF723FFFEE701000000982C000008B5134A134B1A60134A136843F40073136000230AE0032B03D8104A52F8231000E00F490F4A42F821
:4003C000231001332F2BF2D90D4B1A780D4B1A700A4A0D4B1A6000F0E5F800F08DF900220A4B1A6008BD00BF0004FA050CED00E014ED00E000000000190300000080FF1F50
:40040000BC7600400481FF1F08ED00E00081FF1FFEE700BFF0B40022174611E050F82760F3B226F0FF0608E001EB420511F812406D78A5550132013BDBB2002BF4D1013773
:400440002A2FEBD9F0BC7047114B1B78DBB203F00701104A11701B0901321370C0220E4B1A70E02210331A70CC2203F603231A7020230A4A137002210532117003321370F8
:400480000C22074B1A704422A3F2E2231A707047CF0100496E5800400D510040235B0040585B004008B50A46002102F052FA08BD38B501222D4B1A8018232D490B700231D1
:4004C0000A802C4A1370042102321180023213700C210232118002321370332102321180023213700622244B1A705222A3F580731A70224B1B78DBB2214A13704FF4E162B4
:40050000204B1A8041F25122023B1A80002419250CE01D4B1B7803F0010343EA440404F003044FF4F07000F0D7F8013D0DB1032CEFD115B90320FFF76BFF144A4FF4807357
:40054000138007231370002311490B7048200231087013700532137002220E4B1A700E4A137843F01F03137038BD00BF804000408240004086400040004300400F01004999
:40058000A14600402242004025420040044000400640004001400040A243004008B502F0CDF908BD38B572B6344A137843F00403137000240CE0324963001A1952000A4443
:4005C00023445B00C8589188FFF76CFF0134E4B2062CF0D94FF090402A49FFF71BFF2A480421FFF75FFF294829490422FFF7D6FF284A137843F0020313701032137843F0D0
:4006000002031370244C237843F040032370A2F58632513A137843F0100313701F4820490822FFF7BBFF1F481F490A22FFF7B6FF1E481F490822FFF7B1FF1E481E4908220B
:40064000FFF7ACFF1D481E490822FFF7A7FFC4221C4B1A701C4A137843F0080313701B4D61232B70FFF724FF81232B70FFF7ECFE174821460E22FFF791FF38BDE846004020
:40068000342A0000AC00004800760040087600405810004803500140A0430040025100402C100048F051004034100048125100404010004822510040481000483251004098
:4006C00050100048DB0601402243004000480040B0430040000000000230800803D000BF01380046FCD17047EFF3108072B6704780F31088704700BF0B4A7F231370802194
:40070000517007E0DA0002F1804202F5F042013BDBB21370002BF5D1DB0003F1804303F5F04300221A7070471481FF1F172815D831B103010A495A5C42F020025A5405E047
:40074000030107495A5C02F0DF025A540001044A835C43F00103835400207047012070471070004017280CD80001074BC1180A7942F004020A71C25C42F00102C254002035
:4007800070470120704700BF1070004017280BD80001064A835C03F0F10301F0070143EA4101815400207047012070471070004041F6FF73994201D14FF4005141F6FF73B3
:4007C0009A4201D14FF40052172808D8C00000F1804000F5EC408180C280002070470120704700BF172805D8034B03EB0010417200207047012070471070004017281BD898
:4008000010B4C00000F1804404F5EC44D201D2B201F07F01114321709DF804201201D2B203F00F03134363709DF8083003F00F03A3700020E07001E0012070475DF8044B79
:40084000704700BF10B5FFF74FFF0A4B5B78182B0BD9084A1478013B5370E30003F1804303F5F0431B78137000E0FF24FFF740FF204610BD1481FF1F10F0800F0CD111F463
:40088000704F0BD1C00000F1804000F5F04001808270C37000207047012070470120704710F0800F08D1C00000F1804000F5F0408180C280002070470120704701BE704774
:4008C00008B5034B1B7A03FB00F0FFF705FF08BD1C81FF1F70B504460E46074B1D681F2802D90020FFF7EAFF04F01F04103455F8240045F8246070BD08ED00E038B504466F
:400900000D46072902D90020FFF7D8FF1F2C02D90020FFF7D3FF04F01F0000F1604000F564406D01EDB2057038BD00BF134B1B78DBB20360124A127843EA02230360114A14
:40094000127843EA024303600F4A127843EA026303600E4B1B78DBB243600D4A127843EA022343600B4A127843EA024343600A4A127843EA02634360704700BF0301004984
:4009800004010049EC4600400201004901010049000100490501004906010049044A137803F0FD03400000F002001843107070472051004008B50A280FD00C2802D00828B2
:4009C00006D102E04FF4805209E04FF4807206E00020FFF773FF002201E04FF480620021094B198041F2883342F2107000FB0233064A82FB0302DB17C3EB2233044A13600D
:400A0000044B198008BD00BFFC81FF1FAD8BDB680082FF1FFE81FF1F10B5FFF765FE04461F4A137843F0020313701032137843F002031370193A137843F00203137010327D
:400A4000137843F00203137002F5AA521932137803F0FE0343F0020313700422114B1A70013B1A7802F0BF021A701A7842F003021A700822053B1A700222A3F59753123B67
:400A80001A70094A137843F0080313700A20FFF717FF0122054B1A602046FFF729FE10BDAB4300400E5900402F5B004080E200E010B504460A280DD00C2802D0082804D190
:400AC00001E0C42207E0442205E00020FFF7F6FEC42200E08422034B1A702046FFF76AFF10BD00BF0A59004008B5102000F038F800200721FFF702FF00200749FFF7EAFE21
:400B0000064A137843F0060313700C20FFF7D0FF0022034B1A8008BD510B0000095900400482FF1F08B5054B1B7823B9FFF7DCFF0122024B1A70FFF76FFF08BDD481FF1FD6
:400B4000024A137843F001031370704708590040704700BF0122014B1A60704700E100E0034B1A7800F0F80010431870704700BF86400040024A137843F0800313707047CF
:400B80007B650040014B1870704700BF0B650040014B1870704700BF4B650040014B1870704700BF2B650040014B1870704700BF3B650040014B1870704700BF8B65004023
:400BC000014B1878704700BF6B650040014B1878704700BF5B65004008B501E0FFF7F6FFFFF7EEFF10F0100FF8D108BD10B5134A137803F0C00343F009031370104C23780C
:400C000043F001032370FF20FFF7BCFFFF20FFF7BFFF0020FFF7C2FF0020FFF7C5FF0020FFF7C8FFFFF760FD237843F010032370FFF75EFDFFF7D0FF10BD00BF7B65004030
:400C40009B65004008B5054B1B7823B9FFF7CEFF0122024B1A70FFF78DFF08BDD581FF1F024A137843F08003137070477A650040014B1870704700BF09650040014B18708E
:400C8000704700BF49650040014B1870704700BF29650040014B1870704700BF39650040014B1870704700BF84650040014B1878704700BF64650040014B1878704700BF70
:400CC0005965004008B501E0FFF7F6FFFFF7EEFF10F0100FF8D108BD08B5134A137803F0C00343F0090313701F32137843F001031370FF20FFF7BCFFFF20FFF7BFFF002067
:400D0000FFF7C2FF0020FFF7C5FF0020FFF7C8FFFFF7EAFC054A137843F010031370FFF7E7FCFFF7CFFF08BD7A6500409465004008B5054B1B7823B9FFF7CEFF0122024B5D
:400D40001A70FFF78DFF08BDD681FF1F024A137843F080031370704776650040014B1870704700BF85650040014B1878704700BF6565004008B50146014801F075FD08BD06
:400D800024650040024B186820F07F40704700BF4465004008B50146014801F065FD08BD0465004008B501E0FFF7ECFFFFF7DCFF10F0080FF8D108BD10B50B4C2046FFF7F4
:400DC000D9FF2046FFF7E6FFFFF78EFC074A137843F010031370FFF78BFCFFF7E3FF0120FFF7BCFF10BD00BFFFD330009565004008B5054B1B7823B9FFF7DEFF0122024B07
:400E00001A70FFF7A3FF08BDD781FF1F024A137843F08003137070477B640040014B1870704700BF8B640040014B1878704700BF6B640040014B1860704700BF286400408F
:400E4000014B1868704700BF48640040014B1860704700BF0864004008B501E0FFF7F0FFFFF7E2FF10F0080FF8D108BD10B50B4C2046FFF7DFFF2046FFF7E8FFFFF734FCA0
:400E8000074A137843F010031370FFF731FCFFF7E3FF0120FFF7C2FF10BD00BFFF570F029B640040014B1B685865704708ED00E04001C0B2014B1870704700BF05E400E0AA
:400EC0002022014B1A60704700E100E02022014B1A60704780E100E010B50446FFF7F6FF2046FFF7DFFF0720FFF7E2FFFFF7E8FF10BD00BF014B1B689865704708ED00E07F
:400F00004001C0B2014B1870704700BF06E400E04022014B1A60704700E100E04022014B1A60704780E100E010B50446FFF7F6FF2046FFF7DFFF0720FFF7E2FFFFF7E8FF1B
:400F400010BD00BF08B500F09FF8803840B208BD08B5002803DBC0B280F0800001E08038C0B200F08BF808BD024B187800F00F00704700BF64640040014B1870704700BF26
:400F80008464004008B50F20FFF7F6FFFFF7ECFFFFF7AAFB034A137843F010031370FFF7A7FB08BD9464004008B500F0BBF8802000F064F8044B1B7813B90122024B1A708C
:400FC000FFF7E0FF08BD00BFD881FF1F08B500F0D1F8803840B208BD08B5002803DBC0B280F0800001E08038C0B200F0BDF808BD024B187800F00F00704700BF6865004043
:40100000014B1870704700BF8865004008B50F20FFF7F6FFFFF7ECFFFFF766FB034A137843F010031370FFF763FB08BD9865004008B500F0EDF8802000F096F8044B1B78A1
:4010400013B90122024B1A70FFF7E0FF08BD00BFD981FF1F024A137843F080031370704779650040014B1870704700BF88640040014B1878704700BF68640040014B18704C
:40108000704700BF0C640040024B1B78024B1878704700BF0C6400404C640040014B1878704700BF4C640040014B1870704700BF2C640040014B1870704700BF3C640040B1
:4010C00008B501E0FFF7EAFFFFF7D2FF10F0400FF8D108BD08B5114B1A7802F0F8021A701A7802F0FC021A70FFF7EAFF8020FFF7DBFF8020FFF7C2FF0020FFF7B3FFFFF73E
:40110000B7FF8020FFF7D6FFFFF7EEFA044A137843F010031370FFF7EBFA08BD796500409864004008B5054B1B7823B9FFF7D2FF0122024B1A70FFF78DFF08BDDA81FF1F17
:40114000024A137843F08003137070477C640040014B1870704700BF87640040014B1878704700BF67640040014B1870704700BF07640040024B1B78024B1878704700BF8E
:401180000764004047640040014B1878704700BF47640040014B1870704700BF27640040014B1870704700BF3764004008B501E0FFF7EAFFFFF7D2FF10F0400FF8D108BD01
:4011C00008B5114B1A7802F0F8021A701A7802F0FC021A70FFF7EAFF8020FFF7DBFF8020FFF7C2FF0020FFF7B3FFFFF7B7FF8020FFF7D6FFFFF778FA044A137843F01003B6
:401200001370FFF775FA08BD7C6400409764004008B5054B1B7823B9FFF7D2FF0122024B1A70FFF78DFF08BDDB81FF1F10B5022001214FF4804241F6FF7300F049F9084C6B
:4012400020700820012141F6FF72134600F060F96070044800F07AF9012000F07DF910BDDC81FF1F6513000070B52C4C2078FFF779FA6078FFF776FA294B1B78FF2B03D1A3
:40128000FFF7E0FA264B1870254D2A78104608210623FFF7F1FA214E341DA4B2287845F6A0312246FFF7FCFA30782978FFF79AFA6B78FF2B02D1FFF7C5FA6870184D6A782B
:4012C000104608210723FFF7D7FA68782146154A92B2FFF7E5FA114C60786978FFF782FA20780121FFF722FA60780121FFF71EFAFFF7FAF90C4A137843F020031370FFF7CA
:40130000F7F90A4B1A7842F001021A701A7842F002021A700222064B1A6070BDDC81FF1F2C81FF1F0882FF1F916400407264004080E200E008B5074BDB6823B9FFF776FF95
:401340000122044BDA60FFF78FFF00F0ABF8024B1B7808BDDC81FF1F6D64004008B500F0AFF808BD704700BF08B50A280FD00C2802D0082806D102E04FF4805209E04FF4EC
:40138000807206E00020FFF799FA002201E04FF480620021094B198041F2883342F2107000FB0233064A82FB0302DB17C3EB2233044A1360044B198008BD00BF1082FF1F00
:4013C000AD8BDB681482FF1F1882FF1F10B5FFF78BF90446194A137843F0010313701032137843F00103137002F5AA520832137803F0FE0343F0020313700422104B1A70DC
:40140000013B1A7842F040021A701A7802F0FC021A70C822053B1A700222A3F597530C3B1A70084A137843F0080313700A20FFF747FA2046FFF75CF910BD00BFAB4300403F
:4014400006590040275B004010B504460A280DD00C2802D0082804D101E0C42207E0442205E00020FFF72AFAC42200E08422034B1A702046FFF778FF10BD00BF0259004071
:4014800008B5064A137843F0060313700C20FFF7DBFF0022024B1A8008BD00BF015900401282FF1F08B5054B1B7823B9FFF7E8FF0122024B1A70FFF789FF08BDEC81FF1FDF
:4014C000024A137843F001031370704700590040F0B583B086460F4616461D460B4C01232370002200920192184671463A46FFF785F9207831462A46FFF75AF92078022172
:40150000FFF744F9207803B0F0BD00BF2E81FF1FF0B583B086460F4616461D460A4C0023237000930193184671463A46FFF766F9207831462A46FFF73BF920780221FFF7C5
:4015400025F9207803B0F0BD2F81FF1F014B1B685864704708ED00E04001C0B2014B1870704700BF01E400E00222014B1A60704700E100E07222034B1A702022F8331A70E9
:40158000704700BF8F64004010B5FFF7ADF80446074A137843F020031370F832137843F01003137000F014F82046FFF7A1F810BD9F64004008B5054B1B7823B9FFF7DAFF59
:4015C0000122024B1A70FFF7DFFF08BDED81FF1F054A137843F0100313701032137843F010031370704700BFA2430040F8B5FFF77BF80646404A137843F001031370103285
:40160000137843F00103137001273C4B1F700225943B1D7002F5E2521B32137803F07F0313700020FFF74CF9354C237803F0F9032370344A137803F0DF03137023783B4336
:4016400023703846FFF73CF92820FFF739F92E4B1A7802F07F021A701A7802F0BF021A7023782B4323702846FFF72AF9237843F0040323700023254A13700132137030461B
:40168000FFF736F817200721FFF738F917202049FFF720F918200721FFF730F918201D49FFF718F915200721FFF728F915201A49FFF710F928460721FFF720F9284617492F
:4016C000FFF708F903200721FFF718F903201449FFF700F904200721FFF710F904201149FFF7F8F80C200721FFF708F90C200E49FFF7F0F8F8BD00BFA54300409D600040FE
:401700009443004012600040F8510040846000409D1E00006D1C0000991E0000E11D0000191E0000551E0000A51E000008B5214B18700023204A1370204A1370204A137032
:40174000204A1370204A1370204A1370204A1370204B4FF400021A604FF080721A604FF400121A6004221A6008221A6010221A6011B1012906D00BE0174A137803F0FE0394
:4017800013700AE0144A137843F00103137004E0114A137843F00103137003220F4B1A708022203B1A700120FEF796FF04220C4B1A7008BD3582FF1F3882FF1F5482FF1FED
:4017C0005782FF1F4C82FF1F5682FF1F5982FF1F3482FF1F00E100E009600040286000401260004038B505460C46064B1B7823B9FFF7FCFE0122034B1A7028462146FFF75F
:4018000095FF38BDEE81FF1F00230A4A13700A4A13700A4A13700A4A13700A4A13700A4A13700A4A13700322094B1A708022203B1A7070473882FF1F5482FF1F5782FF1F8A
:401840004C82FF1F5682FF1F5982FF1F3482FF1F2860004010B4FF2400220EE00A4B9B5C03EB43039B0009490B449B78DBB2834201D1144602220132D2B2012AEED920467A
:401880005DF8044B704700BF2482FF1F6482FF1F10B5204C2079FFF7DDFF237813F0800F0ED06378DBB2212B2FD11B4B07221A80C0EBC000194A1044586000F045FA10BDEC
:4018C000144B5B78DBB2202B02D0222B10D01EE0114A07231380C0EBC00310490B4453600F4A135C43F00103135400F055FA10BD084B9B780B4A22F81030094A135C43F084
:401900000203135400F0E0F810BD002010BD002010BD00BF006000404082FF1F3081FF1F1C82FF1F3082FF1FC37803F0030390F9020000280FDA032B06D002F001030B4815
:40194000C15442F001020EE0C2F380030848C15442F0040207E0032B05D0C2F340030548C15442F002021046704700BF2082FF1F2482FF1F2882FF1F1C4B19781C4A1388CF
:401980000B449BB2138000230EE01A4A51680978C9B21948C1545168013151600133DBB21188013989B21180124A128892B20AB1072BEAD90D4A1278D2B2082A00D05BB1FF
:4019C0000E490A7882F080020A700F210C4A117002210C4A117004E0022209490A7009490A70094A1370014A137070473482FF1F3682FF1F4082FF1F00600040CA82FF1F10
:401A00005582FF1F3882FF1F5882FF1F0222074B1A708022064B1A700F22064B1A700023054A1370054A1370012070473882FF1FCA82FF1F5582FF1F3482FF1F5882FF1FB6
:401A400008B5FFF799FF08BD10B4184B197801F00F010239C9B2164A13880B449BB21380002010E0134B5C68134A125CD2B222705A6801325A600130C0B20139C9B21A8801
:401A8000013A92B21A800B4B1B889BB20BB10029E8D10A4B19700A4A137883F0800313700B22084B1A705DF8044B7047296000403682FF1F4082FF1F006000405882FF1F77
:401AC000CA82FF1F5582FF1F0623064A1370064A13708022054B1A700022054B1A700120704700BF3882FF1F5582FF1FCA82FF1F5882FF1F064B9B6843B1054B9A68107060
:401B00009A6804490988518000229A60704700BF4082FF1F3682FF1F08B5134B1A78D2B21A701B78DBB213F0800F02D00F4A137008BD0220FFF7DEFF0D4B1B7803F0600396
:401B4000202B05D0402B06D043B900F091FC06E000F094FE03E000F039FE00E0002010B90322024B1A7008BD286000405582FF1F0060004008B5084B1978084A13880B4455
:401B80009BB213800022064B1A700120FFF7B2FF0322044B1A7008BD3482FF1F3682FF1F3882FF1F5582FF1F08B50B4B1B78DBB2042B06D0062B07D0022B0BD1FFF7DAFF2E
:401BC00008BDFFF741FF08BD0320FFF793FF0322024B1A7008BD00BF3882FF1F5582FF1F08B50022044B1A700120FFF783FF0322024B1A7008BD00BF3882FF1F5582FF1F8F
:401C000008B50B4B1B7813F0FF0F07D0084A137843F0800307490B70002313700022064B1A700120FFF766FF0322044B1A7008BD5682FF1F086000403882FF1F5582FF1F6B
:401C400008B5094B1B78DBB2042B06D0062B07D0022B07D1FFF7F4FE08BDFFF7C1FF08BDFFF7CEFF08BD00BF3882FF1F08B5284B1B78DBB213F0100F48D013F0800F0CD0E2
:401C800003F00F03012B16D1FFF746FF214B1B7813F0800F11D1012312E013F0400F03D0FFF7CEFF01230BE013F0200F07D0FFF77BFF012304E0002302E0002300E00023A5
:401CC00023B3134B1B7813F0800F1FD1124B1B78124A12781343124A13701278D2B29A4214D10C4B1B78DBB2094A127812F0800F07D1084B1B78DBB2054A1370137803F041
:401D00000F03044A1278D2B29342EAD108BD00BF286000405582FF1FCA82FF1F5882FF1F296000400022064B1A80064B9B682BB1044A916800230B7092685380704700BFD4
:401D40003682FF1F4082FF1F08B50F4B1B889BB213B9FFF75BFE15E002220C4B1A7000220B4B1A70FFF7DEFF0A4AD179937943EA0123054A128892B29A4201D9024A1380FF
:401D8000FFF7FAFD012008BD4082FF1F3882FF1FCA82FF1F0060004008B504220B4B1A7080220B4B1A70FFF7BDFF0A4AD179937943EA0123084A128892B29A4201D9064A66
:401DC00013800B22054B1A70012008BD3882FF1FCA82FF1F006000404082FF1F5582FF1F0A4A137803F0FE031370094B9B7C094B1B7B03F00303012B04D0064AD37B83F0F7
:401E00008003D3730122034B5A7370470B600040FC5F00405C82FF1F0B4A137803F0FD0313700A4B93F82230094B1B7E03F00303012B04D0064AD37E83F08003D376012231
:401E4000034B5A76704700BF0B600040FC5F00405C82FF1F0D4A137803F0FB0313700C4B93F832300B4B93F8243003F00303012B06D0084A92F8273083F0800382F82730C8
:401E80000122044B83F82520704700BF0B600040FC5F00405C82FF1F704700BF08B5FFF7B3FC08BD08B500F0AFFC08BD70B588B0054603AC174E0FCE0FC43368237035B3FC
:401EC00022232B7003236B7001A8FEF72FFD002402231AE008AA224412F81C2C08A901EB121111F8141CE954581C00212954981C02F00F0208AE324412F8142C2A54DA1CA1
:401F0000A9540134E4B20433DBB2212BE2D908B070BD00BF602A000010B401223DE0114613010C242148C45402EB42039B00204803445B7913F0FF0F12D002EB42039B00B0
:401F400003441B7913F0800F04D01001194B03449C700AE01001174B03440820987004E01001144B0344802098704B000B449B000F480344DC88E4B208010C4901448C71D4
:401F8000D888C0F30720C871D888C0B20871DB88C3F307234B710132D2B2082ABFD9FF22054B1A705DF8044B704700BF706000405C82FF1FFC5F00400A600040074B1B7898
:401FC000074A02EBC30253681A7C824203D903EBC003586970470020704700BF3582FF1FB02A0000F8B5404B1B7813F0FF0F79D03D4B18780138C0B2FFF7E0FF047AC2681A
:402000003A4B1878C0B200236AE01178814264D13749095CC9B25578A9425ED1917801F07F01D67806F00306DFF8C8E04D000D44AD000EEB05074FF0000C87F803C092F837
:4020400002C087F804C092F803C00EF805C095883D8192F90250002D0DDA012E01D1072700E00D274D000D44AD00224E35446F7101266E700CE0012E01D1052700E00927F2
:402080004D000D44AD001B4E35446F7100266E70DFF868E00F010EEB07060125B57001FA05F529448900134D29440D89C5F307250EF807500D89EDB27570CE88F6B20E4D8D
:4020C0003D44AE71CE88C6F30726EE71CE88F6B22E71C988C1F30721697108320133DBB2A34292D3F8BD00BF5782FF1F4C82FF1FC882FF1F5C82FF1F70600040FC5F004056
:40210000034B1A78034B03EBC2035868704700BF3582FF1FB02A000008B5074B18780138C0B2FFF74BFF28B14268127900EBC203586908BD002008BD5782FF1F2DE9F843DE
:4021400000220EE06D4E53009D18AD00741900217155A170E1702181A172617061710132D2B2082AEED940B90AE000226449CA546449CA540133DBB200E00023012BF4D9A9
:40218000614B1B7813F0FF0F00F0B5805E4B18780138C0B2FFF712FF80464368DB7913F0400F05D0594A137843F00103137004E0564A137803F0FE03137098F808704FF01E
:4021C000000901266CE0D8F80C50002464E0AB7803F07F039E425CD1314606EB46039B00464803441B899BB2A888834205D206EB46039B00414A134418812B784048C35CB2
:40220000DBB26878834244D195F802C03B484B000B449B0000EB030E8EF804C095F803E000F803E0EB7803F0030395F90200002811DA012B02D14FF0070C01E04FF00D0C36
:40224000DFF8B8E04B0058188000704480F805C00123437012E0012B02D14FF0050C01E04FF0090C25484FEA410E0EEB01039B00034483F805C0194600234B70AB790A2BCC
:4022800001D0022B05D1284631464A46FFF74CFB814608350134E4B2BC4298D30136F6B2082E90D9D8F80C0000220CE0837803F07F0310F8084B03EB43039B0014490B44B2
:4022C0009C700132D2B2BA42F0D3FFF725FF114B1860002001220AE0084C5300991889002144C8800B89184480B20132D2B2082AF2D9FFF711FEBDE8F88300BF5C82FF1FFD
:40230000C882FF1F3C82FF1F5782FF1F5982FF1F6482FF1F5082FF1F08B5154B1A7902F07F02531EDBB2072B20D8530013449B0010490B44997841F0010199700021D97086
:40234000597841F0020159701B7913F0800F05D01201094B13448D229A7004E01201064B134489229A70FFF7AFFB08BD002008BD006000405C82FF1FFC5F0040264B1B7943
:4023800003F07F035A1ED2B2072A43D810B55A001A44920021490A44917801F0FE0191700021D17019017F241D484454517801F0FD015170127912F0800F14D003EB4302D7
:4023C000920016490A445278D2B2012A05D11B0102461A440C23937019E01B01104A1A440D23937013E003EB430292000B490A445278D2B2012A05D11B01094A1A440823BA
:40240000937004E01B01064A1A4409239370FFF75BFB10BD00207047006000405C82FF1FFC5F004010B50E4B1C79E4B20D4B18780138C0B2FFF7C2FD43681B799C4201D90D
:40244000022C0AD8084A135DDBB208490B55044B9B78DBB21355012010BD002010BD00BF006000405782FF1FC882FF1F3C82FF1F10B5964B1B78DBB20021954A118013F026
:40248000800F00F0B380914A5278D2B20A2A00F27981DFE812F06F00770177017701770177010B00770198007701A000874BDB78DBB2012B09D1FFF723FE4268844B5A605C
:4024C00012221A80FFF740FC10BD804BDB78DBB2022B13D17D4B9878FFF770FD002800F0538142687A4B5A605A68D1785A68927842EA01221A80FFF727FC10BD734BDB784C
:40250000DBB2032B05D032E00A7811440133DBB201E000236F496D4A9278D2B29A4203D90A7812F0FF0FEFD1684B9B78DBB2EE2B00D16949654B9B7813F0FF0F0BD0634B0A
:402540009B78DBB2654A127C934204D1644C2046FFF7ACFC21460B7813F0FF0F00F016810B785B4A13805160FFF7EEFB10BD00F085F910BD13F0030317D0022B40F0088175
:4025800053490B80514B1B7903F07F0303EB43039B00544A13449A78D2B2534B1A7000225A704B60FFF7D0FB10BD494902230B804E4B1A78D2B24C4B1A7000225A704B60FF
:4025C000FFF7C2FB10BD424B01221A80484A5A60FFF7BAFB10BD3E4A012313803B4B1B7944490B445360FFF7AFFB10BD374A5278013A0A2A00F2CE80DFE812F04B00CC001E
:402600009700CC000B00CC00CC00CC001300CC0030002E4B9B78DBB2374A1370FFF754FA10BD2A4B9B7803F0FF041BB1601EC0B2FFF7C4FC04B110B9002C40F0AD802C4B1D
:402640001B78DBB29C4206D0294B1C7001202B4B1870FFF773FDFFF737FA10BDFFF7E2FE002800F09B80194A1379DBB21279D2B223490A70234AD25C1E49C95CD3B28B421A
:4026800004D001221D4B1A70FFF7ACFCFFF71CFA10BD03F00303012B36D04BB1022B7FD10A4B9B7813F0FF0F7CD1FFF767FE10BD064B9B78DBB2012B76D10C4A137803F0F0
:4026C000FD031370FFF700FA10BD00BF006000404082FF1F182B00009C2A0000FC2B0000D082FF1F5C82FF1FF081FF1F5982FF1F5782FF1FC882FF1F5682FF1F5482FF1FEE
:402700004C82FF1F3C82FF1F2D4B1B79DBB2012B4CD82B4B98781B79DBB22A49CA5C22EA0002CA54FFF7D0F910BD03F00303012B17D04BB1022B3BD1214B9B7813F0FF0F1F
:4027400038D1FFF7E9FD10BD1D4B9B78DBB2012B32D11D4A137843F002031370FFF7B4F910BD174B1B79DBB2012B27D8144B98781B79DBB21349CA5C22EA0002CA54FFF771
:40278000A3F910BD002010BD002010BD002010BD002010BD002010BD002010BD002010BD002010BD002010BD002010BD002010BD002010BD002010BD002010BD002010BDCD
:4027C00000600040CC82FF1F5982FF1F08B50B4B1B7813F0800F0CD0084B5B78DBB2012B09D1074B074A5A6012781A80FFF7ACFA08BD002008BD002008BD00BF00600040FC
:402800004082FF1F742A0000024B1878C0F38010704700BF8F450040014B1B68D865704708ED00E04001C0B2014B1870704700BF07E400E08022014B1A60704700E100E030
:402840008022014B1A60704780E100E010B50446FFF7F6FF2046FFF7DFFF0720FFF7E2FFFFF7E8FF10BD00BFCBB20370C1F307234370C1F307418170704700BF08B5124B5F
:402880001B7803F00303012B02D0022B04D00FE00D4B1B79DBB20CE00B4B1B7903F07F0303EB43039B00094A13449B78DBB200E00023074A1268D35C022B02D1FEF7E8FFE8
:4028C00008BD002008BD00BF006000406482FF1F5082FF1F014B1868704700BFAC81FF1F0E4B70B51E460E4C0025E41AA410A54204D056F8253098470135F8E700F0BAF946
:40290000084B094C1E46E41AA4100025A54204D056F8253098470135F8E770BD802C0000802C0000802C0000882C0000024B0146186800F017B800BFAC81FF1F10B5431E7A
:402940000A44914204D011F8014B03F8014FF8E710BD03460244934202D003F8011BFAE77047000070B5CC1C24F0030408340C2C38BF0C24002C064603DA0C233360002037
:4029800070BD8C42F9D3204A136810461946A1B10A68121B0ED40B2A03D90A608B188C501FE08B420BBF5A684A6802605A6018BF0B4616E00B464968E9E7144D2B681BB90B
:4029C000304600F025F828603046214600F020F8421C0346D1D0C51C25F0030585420AD11C6003F10B001A1D20F00700821A0AD05142995070BD3046E91A00F009F801307C
:402A0000BBD02B46ECE770BDF881FF1FF481FF1F38B5064C0023054608462360FDF77EFC431C02D1236803B12B6038BDF482FF1F00000000405100403000C051004010009D
:402A400000000140001000140140000800400140000A004C01400002005001402000000030313233343536373839414243444546000000002800000000010400010000000D
:402A80000000000000014359555342000000303030303100000000000000000012034D005300460054003100300030000100000001000000B82A000001000000FC2B0000B2
:402AC000000000000000000001000000D02A000001000000B82B000003000000FC2A00000000000000000000000000000000000000000000F82A0000020A0000000081031C
:402B0000080002000100820240000A000100030240000A0002030000040309042C0343007900700072006500730073002000530065006D00690063006F006E006400750074
:402B4000630074006F007200100355005300420055004100520054003803430044004300200043006F006D006D0075006E00690063006100740069006F006E002000490080
:402B80006E007400650072006600610063006500260343004400430020004400610074006100200049006E007400650072006600610063006500000009024300020101C07D
:402BC00032090400000102020103052400100104240202052406000105240100010705810308000A09040100020A00000407058202400000070503024000000012010002D6
:402C000002000008B40432F20100010280010000430000000000000000000000000000000000000000000000000000000000000000000000000000000000000000000000E6
:402C400000000000000000000000000000000000000000000000000000000000000000000000000000000000000000000000000000000000F8B500BFF8BC08BC9E467047D5
:402C80004D00000099030000F8B500BFF8BC08BC9E46704729000000A82C00000881FF1FA800000048010000000000000A0A787CF882FF1F7F800000030000000000E02E67
:402CC000C05D00001800000000366E01FFFFFFFF00C2010000000800C201000000080000A1200000000002000000000000000000142C0000342C0000542C00000000000085
:402D0000000000000000000000000000102C000000000000000000000000000000000000000000000000000000000000000000000000000000000000000000000000000057
:402D40000000000000000000000000004C81FF1F00000000000000000000000000000000000000000000000000000000000000000000000000000000000000000000000068
:402D80000000000000000000000000000000000000000000000000000000000000000000000000000000000000000000000000000000000000000000000000000000000013
:402DC00000000000000000000000000000000000000000000000000000000000000000000000000000000000000000000000000000000000000000000000000000000000D3
:402E00000000000000000000000000000000000000000000000000000000000000000000000000000000000000000000000000000000000000000000000000000000000092
:402E40000000000000000000000000000000000000000000000000000000000000000000000000000000000000000000000000000000000000000000000000000000000052
:020000040003F7
:0200000480007A
:400000000145004008520040025B004006640040056500402A00014036010140590201405003014036040140510501404506014056070140600801405A090140560A014072
:400040005C0B0140440C01404E0D0140240E0140390F01405914014050150140421601405C170140581801404D190140511A0140531B01400D4001401641014006420140AC
:400080000743014004440140084501400C4601400B470140084801400C490140164C0140074D01400D500140035101407E0200800180084009401120140418027C4027840A
:4000C0002F848103840F876F886F8B0D8F72840F850D8738880F8B0F580459045C335F0182028302841086208708880189048D018E019040928096049A089B019C049D02F5
:40010000A002A304A420A508A610A808AB10AC80AE40B2FFB71FB980BE04BF40D602D73DD804D904DB0CDC30DD30DF010004048405040640074808010A100B020C110E91AE
:40014000101012441541160117161F0426802C102E012F0530113104334034013514374038903B023C103D013E945E2064806D406E056F147510770A7F028A448B088C400F
:400180008E84C0F4C2FDC4FECAF0CCFFCEFDD620D880DE10E288E602000C060C09010A0C0E02140C180C1B021E012304280C2C042D012E0830023104320133023404360818
:4001C000370139803F4052035302580459045B045C035D305F018504861087028D028F05900191029202930494019602971098029A019B089C019E06A210A502A608A704C8
:40020000B018B101B204B306B403B510B708BA20BB08BE01C065C102C203C404C6ECC80CC9FFCAFFCBFFCC62CDA0CEF0CF41D00CD804D904DA04DD04DF01E640E702E91043
:40024000EA30EB10ED10EE10EF12010805140601074008020A260C100E1110A014011604184019201A241D401ED01F1420082124220223012480250426882B102C402D80D8
:400280003120320A348036803720388039083D2040444308480A514052106D606E206F0281408320844085408710884091019201961098119A059B059C809D049F40A00877
:4002C000A480A650A702A808AF01B010B480B690B741C0F4C2EFC4CCCA92CC27CE2AD007D20CE080E202E404EA070002010C02010301040105800602071009B00B400E10BA
:400300000F0F110B12041304141015701810190C1B021D072001220223F0240125C02602272029082B012DC02E082F103003321033F03408350F36043A023E04540F580400
:4003400059045B045F01A301A601B101B201D804D904DC33DF010088010205140740082A0C180E400F08110812021301160C170419031A221B101D0421202204230426018C
:40038000274029212A802B202C182D012E402F0430043160320833023514374039283B423E084C044E0458445A205B02800881018460864089048C208D8091C99244930991
:4003C000960299209A149B059C029D949F40A044A104A222A4A2A710A804AE20AF08B508C07DC27EC46DCAFFCC7FCE4FD60FE004E20AE60CEA04EE4204010A011201180198
:400400001C01240128013201580459045C335F018101850A8714891E8CFD8D148E028F0A903092C9950E98949A609CCF9E309F01A073A106A318A49EA660AA0FAD18AF0623
:40044000B0FFB51EB701BE01BF40C035C106C543C6C2C70EC81FC9FFCAFFCBFFCDA0CF01D018D40FD804D904DA04DB04DF05E040E280E440E540E680E840EA80EC40ED20C3
:40048000EE800302051409110A050B420C200E420F0810141305162C18801F0820082110224029012B012E682F0430C0320835143601392A3A803F08430448904A024B10BC
:4004C000512853C058205A8A6128640165406701780181508424868087C289028B048C208F02900891C89244930C9520974299059A549B019C029D509E809F02A221A301B4
:40050000A608A706A802B080B204B321B504C061C2DBC46ECA79CCEACE4FD002D20CD60FD806DE01E009E282E406EA04EE040070020405FD06070702082409940A400B60C8
:400540000C670D9E0E100F6011731530161017C91A081B0F1C80228024612602285129CF2A222B302C373080320F347037FF3E013F40404549FF4AFF4BFF4F015018540F4B
:40058000580459045A045B045D095F056040624064406540668068806A806C806E808208880489018D01910195019D01A101A701AA06AE01B004B202B401B501B608BE01F1
:4005C000C051C9FFCAFFCBFFCD83CE03CF01D018D804D904DA04DC30DD09DF01E040E240E440E540E680E880EA80EC80EE80010103080410050406410B300C200E010F10AA
:40060000100211201320152116021704180219021A051B081C201D041E801F102220270128602D202F04300932803510360A39803A103D843E20418045014A014F805C04B5
:400640005D025E805F206608670478107A087E02822483048404854489108C088E0190809181930C94029642972098639A389D90A00AA191A209A340A682AB02B010B2028E
:40068000B304B640C0FAC2E0C4F3CA23CCEBCE7CD088D218D6F0D860DE10E461E610E890EE84405149FF4AFF4BFF4D834E034F015018580459045A045C335D095F016040E8
:4006C000624064406540668068806A806C806E808001834E84488502861487218A018C108E609106931096019824993E9A189D089F30A104A321A47EA87EAC02B002B10E27
:40070000B20CB340B470B530B601B701BB20BE40BF40C045C5ECC602C807C9FFCAFFCBFFCD83CE03CF01D018D280D401D604D804D904DA04DB04DC94DD99DF01E040E240B8
:40074000E440E540E680E880EA80EC80EE8001040290030804020534070108210A800D080E0810401340154017141C201D441E041F0225052661274028402C80300932902D
:40078000330835013620374039843B403C023D0841804402450146024A014D0A4F805480558057405D0A5E806501740178807B02800182208540860587018A088D1090802B
:4007C00091C59221930496C6972098609A089B149C809DA1A002A118A204A308A602A810A980AC04B501B604C0FEC26AC4E9CA81CCBFCECAD088D218D6D0D880E240E48083
:40080000E640EA40EE4003010418087F09060C1011021204145C162218041A801C671D011E18224324082709281C2A612D0630803101321F330434583502362037083880CD
:4008400039283A083F1140524106454C4620473E483B49FF4AFF4BFF4DA04F0150185280580459045A045B045C045F016040628064406540668068406A806C406D206E80BB
:40088000D401D804D904DB0EDC33DD30DF01030804200504060108200A800EAA1040110612041340148017281C081EA11F04248025282680284029102A042B082C022F106D
:4008C0003250368239843B403C023F2045204D214E014F0454025510560857105A40740178088008850891C4922096C49708982099149A059B3C9C809D80A101A201A6044D
:40090000A801AA40AE02B312B420B521B614B740C0E2C2FAC47FCA57CC9CCEAAD020D230D608DE02E850EA20EC50580459045C335F01810882018504890C8D8291F3930C70
:400940009541991F9A029BE09FE3A5C3A91CABE3ADFFB1C0B201B32CB402B510B70FBB88BF10D602D711D804D904DB04DC43DD40DF010004012005200650070208200A90B4
:400980000C400F04110412141420158016041C041D101E101F1024012612272129202A042D802E042F043040325034803605372139843B203E2A3F805E206D406F14750443
:4009C000762B770889048A408B048D408E10C0F6C2CEC4E6CA76CCFCCEFED620E020E288E4A0E612050406040A080B020E010F0814081B081F042301280429012E02300151
:400A000031043202330234083501360437083E103F41401349FF4AFF4BFF4F0150185407580459045A045B045C225D295F016040624064406540668068806A806C806E8027
:400A40008204830186048A01960A9B069D049E03A408B004B202B304B408B501B601B702BE01C013C9FFCAFFCBFFCD83CE03CF01D018D401D604D804D904DA04DB04DC223E
:400A8000DD99DF01E040E240E440E540E680E880EA80EC80EE8000200140021005200620074009080E200F021209170419401A081B051E861F0821802219268027242A015A
:400AC0002B043220338035203680380439903A103E024220434046204740580559405A205D055E80650281608320861688048A028B098C048D088E019195960A98019A21A5
:400B00009B409D02A010A220A380A580A602A981AB20AD02B280C077C2A4C423CA05CC3CCE8ED05AD6DFD880E003E230E60DE811EA02EC20EE01401345EC4620480B49FFC8
:400B40004AFF4BFF4D834E034F01501852805608580459045A045B045C335D995F016040624064406540668068806A806C806E80810685C089A08CBF8E408F01908591C05D
:400B8000921A9560990C9CCC9D0C9E23A077A310A4CAA615A803AAFCAB01AD0AB00FB110B3E0B501B6F0B70EB988BF10D418D604D804D904DB04DD40DF01030205140901AF
:400BC0000A010C280E420F08101011201301160C19401A011B02208021012288232528402A102B022C082E482F0430103142320835143601380839203A403B013F0846206E
:400C000047404D0556205B015D806180634467027740830984018510874288508E01900891A0924093089502960B9701985099149A549B019D02A030A110A221A388A501D5
:400C4000A60AA702A802A910AB04AC04AF10B201B304B440C061C2F9C44ECA7DCCEFCE4FD050D611D81DE008E202E405E608EA0BEE0500670101034204C1052C06020710E5
:400C800009200A070B040D300E080F08111C150116201702184419301A801B041D021F0120A1224224C72620273C2A102B802CE02D012E042F023010310332E03340340FDB
:400CC0003580373C3B02540F580459045B045F018F02970298019902A701AE01B102B401B701BA80BE10BF01C040C102C551C620C70DC81BC9FFCAFFCBFFCDA0CF04D0181E
:400D0000D280D804D904DA04DB04DC04DD02DF01E040E2C0E440E540E6C0E8C0EAC0ECC0EEC004010510062007010A040C100D081002140215041712180419801D181F09EC
:400D400022412560260827522B202C102F0931283520360A37403B403D863E20411248804B08501851105C405D085E21734083048408860187048A508C888D4091049204AF
:400D8000941496C2981699249A209B019D909E02A002A204A540A602A860AA40AC10B2C0B420C0F0C262C4F1CA72CCF6CEF8D005D6F0E4A1E640E880EA02EC900001070170
:400DC0000B041203130D1A041F082302260430013102330434043501360237083E103F045280580D59045B045C235D205F018004841086088C01940497089A029D029E0177
:400E00009F04A218A418A902AB01AC04B008B108B210B301B404B504B603B702B820B980BE15C030C102C5D2C610C705C81BC9FFCAFFCBFFCDA0CF04D018D280D407D80489
:400E4000D904DA04DB04DC09DD22DF01E040E2C0E440E540E6C0E8C0EAC0ECC0EEC00001048005040640074008200B800C040E020F0810201612170218851A401C401E26AA
:400E80001F4021662515270229012C242E08308031023408374038203B08442046084C204D0157285C045D015E105F80710175027A0481228210830887A0882089048A0401
:400EC0008D1490209308944095809640980C99049A52A080A204A304A503A610A811AA02AB60AD40B108B202C0B8C2EAC4B4CA21CC59CE06D060D6F0DE04E084E6F0E8907B
:400F0000EC20EE0410801680332137183B223E8087188B20C430CCF0CE70E210E64003800780314033023640630264108380841087018B8097029F01A080AB10C030CC7016
:400F4000D640D880E080E650EA2097029D409F01A080A640B70289409D409F01A080A640AB01EE20840485808B80E201014063819C04A580A780C002D602D8021B04242025
:400F80008C1097019C04A580A7C0B540C608C801E602EA0209880C044740808097019C04A580A7C0AB04C20ED00420808640A080A640AF01C840E640EA40180853105710D4
:400FC0008B108F109408A880B040B404C640D460E82001400A201F8034015904648081048D408F01970198809F40A7C0AD08C002C208C601CC01D602D801E202E408834098
:40100000A740AA10B001B740E808EC040019010108190A090C190D010E19101D11011A1D1B011C1D1D0100AF01FE100A0300000000C0D4004000000000000000C000000096
:401040001400000000C0E00004626200600000000003030003000000000100000000000000000000000000000000000000000000000000000000000000000000000000008A
:401080000000000000000000000000000000000000000000000000000000000000000000000000000000000000000000000000000000000000000000000000000000000030
:4010C00000000000000000000000000000000000000000000000000000000000000000000000000000000000000000000000000000000000000000000000000000000000F0
:4011000000000000000000000000000000000000000000000000000000000000000000000000000000000000000000000000000000000000000000000000000000000000AF
:40114000000000000000000000000000000000000000000000000000000000000000000000000000000000000000000000000000000000000000000000000000000000006F
:0200000490006A
:0400000000004005B7
:0200000490105A
:04000000BC90ACAF55
:0200000490303A
:02000000D584A5
:0200000490402A
:4000000000000000000000000000000000000000000000000000000000000000000000000000000000000000000000000000000000000000000000000000000000000000C0
:400040000000000000000000000000000000000000000000000000000000000000000000000000000000000000000000000000000000000000000000000000000000000080
:400080000000000000000000000000000000000000000000000000000000000000000000000000000000000000000000000000000000000000000000000000000000000040
:4000C0000000000000000000000000000000000000000000000000000000000000000000000000000000000000000000000000000000000000000000000000000000000000
:0200000490501A
:0C00000000012E16106900012E2BE5ED0A
:00000001FF