:400000000080002011000000490200004902000008B5044B1A6803F53F5302331A6000F015F900BFFA46004010B5054C237833B9044B13B10448AFF300800123237010BDD3
:400040003081FF1F00000000A0140000084B10B51BB108480849AFF300800848036803B910BD074B002BFBD0BDE81040184700BF00000000A01400003481FF1F0881FF1F89
:400080000000000038B5124C0123237000F070FE104D287000F0B0FE6870002000F06EFE002000F0AFFE00F0E9FD0B4B1B786378012B02D10022627002E00122044B5A7091
:4000C00000F004FE00F0CCFD00F01CFE38BD00BF4C81FF1F0C81FF1F6B65004010B51D4B1B7893B15AB2002AB8BF52420A2A04DD184A9378013B937007E00933DBB2122BFE
:4001000003D8144A937801339370124B5B7893B15AB2002AB8BF52420A2A04DD0D4AD378013BD37007E00933DBB2122B03D8094AD3780133D370074CA07800F0B9FCA07854
:4001400000F0BCFCE07800F029FDE07800F02CFD10BD00BF0C81FF1F08B562B600F03AFE00F07CFE00F0ACFB00F030FC00F07CFC00F03AFC00F0F4FF01F048F901F004F817
:4001800000F0EAFC00F05EFD00F06AFD00F0BAFD284800F0DFFD284CA07800F089FCA07800F08CFCE07800F0F9FCE07800F0FCFC002000F047FB00F01FFC204C208000F07D
:4001C00027FC2080002000F0E3FF1D4C208000F0EDFF80B2400080B2208000B241F64C53984203DD012000F02DFB02E0002000F029FB124BB3F9002040F6C4139A4209DD98
:40020000104B1B78012BD6D100220E4B1A70FFF765FFD0E7002000F04BFC002000F04EFC002000F0BBFC002000F0BEFC0122054B9A70C0E7850000000C81FF1F6E81FF1F44
:400240006A81FF1F4C81FF1FFEE700BF08B5104E104D16E029686B68AC68002204E051F8040B43F8040B0432A242F8D1E868002203E0002143F8041B04328242F9D110359C
:40028000013E002EE6D101F0D1F8FFF765FFFEE701000000F414000008B5134A134B1A60134A136843F40073136000230AE0032B03D8104A52F8231000E00F490F4A42F879
:4002C000231001332F2BF2D90D4B1A780D4B1A700A4A0D4B1A6000F0EBF800F099F900220A4B1A6008BD00BF0004FA050CED00E014ED00E000000000490200000080FF1F10
:40030000BC7600400481FF1F08ED00E00081FF1FFEE700BFF0B40022174611E050F82760F3B226F0FF0608E001EB420511F812406D78A5550132013BDBB2002BF4D1013774
:40034000292FEBD9F0BC7047114B1B78DBB203F00701104A11701B0901321370C0220E4B1A70E02210331A70CC2203F603231A7020230A4A137002210532117003321370FA
:400380000C22074B1A704422A3F2E2231A707047CF0100496E5800400D510040235B0040585B004008B50A46002101F070F808BD38B501222F4B1A8018232F490B700231B3
:4003C0000A802E4A1370042102321180023213700C210232118002321370332228490A8002310B7002310A80264A13700222264B1A7008224FF040231A70032103F500737C
:400400001970224B1B78DBB221490B70214B1A8041F25122023B1A80002419250CE01E4B1B7803F0010343EA440404F003044FF4F07000F0DDF8013D0DB1032CEFD115B96C
:400440000320FFF765FF154B4FF480721A8007221A70002212490A704820023108701A700222033B1A700F4A137843F03F03137038BD00BF80400040824000408640004005
:4004800090400040964000400043004008010049A146004022420040254200400440004006400040A243004008B500F0E5FF08BD38B572B6384A137843F004031370002447
:4004C0000CE0364963001A1952000A4423445B00C8589188FFF766FF0134E4B2062CF0D94FF090402E49FFF715FF2E480421FFF759FF2D482D490422FFF7D6FF2C4A1378E9
:4005000043F0020313701032137843F002031370284C237843F040032370A2F58632513A137843F010031370234824490822FFF7BBFF234823490A22FFF7B6FF22482349FC
:400540000822FFF7B1FF224822490822FFF7ACFF214822490822FFF7A7FF8423204A137002F540621370A2F55542393A137843F0080313701B4D61232B70FFF719FF81239B
:400580002B700122184B1A70FFF7DEFE174821460E22FFF789FF38BDE8460040A4140000A800004800760040087600409C0F004803500140A043004002510040700F0048C7
:4005C000C0510040780F004812510040840F0048225100408C0F004832510040940F00485B0C01400048004004000840B04300400230800803D000BF01380046FCD170471B
:40060000EFF3108072B6704780F31088704700BF0B4A7F2313708021517007E0DA0002F1804202F5F042013BDBB21370002BF5D1DB0003F1804303F5F04300221A70704710
:400640001081FF1F172815D831B103010A495A5C42F020025A5405E0030107495A5C02F0DF025A540001044A835C43F00103835400207047012070471070004017280CD870
:400680000001074BC1180A7942F004020A71C25C42F00102C254002070470120704700BF1070004017280BD80001064A835C03F0F10301F0070143EA4101815400207047F4
:4006C000012070471070004041F6FF73994201D14FF4005141F6FF739A4201D14FF40052172808D8C00000F1804000F5EC408180C280002070470120704700BF172805D80E
:40070000034B03EB0010417200207047012070471070004017281BD810B4C00000F1804404F5EC44D201D2B201F07F01114321709DF804201201D2B203F00F03134363708C
:400740009DF8083003F00F03A3700020E07001E0012070475DF8044B704700BF10B5FFF74FFF0A4B5B78182B0BD9084A1478013B5370E30003F1804303F5F0431B78137041
:4007800000E0FF24FFF740FF204610BD1081FF1F10F0800F0CD111F4704F0BD1C00000F1804000F5F04001808270C37000207047012070470120704710F0800F08D1C00028
:4007C00000F1804000F5F0408180C280002070470120704701BE704708B5034B1B7A03FB00F0FFF705FF08BD1881FF1F70B504460E46074B1D681F2802D90020FFF7EAFFFC
:4008000004F01F04103455F8240045F8246070BD08ED00E038B504460D46072902D90020FFF7D8FF1F2C02D90020FFF7D3FF04F01F0000F1604000F564406D01EDB20570DA
:4008400038BD00BF044A137803F0FD03400000F002001843107070472051004008B50A280FD00C2802D0082806D102E04FF4805209E04FF4807206E00020FFF7ABFF0022CB
:4008800001E04FF480620021094B198041F2883342F2107000FB0233064A82FB0302DB17C3EB2233044A1360044B198008BD00BF7081FF1FAD8BDB687481FF1F7281FF1FB0
:4008C00010B5FFF79DFE04461F4A137843F0020313701032137843F002031370193A137843F0020313701032137843F00203137002F5AA521932137803F0FE0343F002030B
:4009000013700422114B1A70013B1A7802F0BF021A701A7842F003021A700822053B1A700222A3F59753123B1A70094A137843F0080313700A20FFF74FFF0122054B1A605F
:400940002046FFF761FE10BDAB4300400E5900402F5B004080E200E010B504460A280DD00C2802D0082804D101E0C42207E0442205E00020FFF72EFFC42200E08422034BEF
:400980001A702046FFF76AFF10BD00BF0A59004008B5102000F06EF800200721FFF73AFF00200749FFF722FF064A137843F0060313700C20FFF7D0FF0022034B1A8008BD1E
:4009C000650A0000095900407881FF1F08B5054B1B7823B9FFF7DCFF0122024B1A70FFF76FFF08BD5081FF1F024A137843F001031370704708590040034B1B88034A1088B1
:400A0000181A00B2704700BFA25B00407281FF1F114B1B889BB233B10F4B198809B201EB8101490001E00D4B19680D4B1A88821A12B242F2107000FB02F0002A03DD01EBC6
:400A4000D1735B1003E001EBD17252105342034493FBF1F000B270477081FF1F7481FF1F7881FF1F704700BF0122014B1A60704700E100E0034B1A7800F0F80010431870EC
:400A8000704700BF86400040024A137843F080031370704775650040014B1870704700BF06650040014B1870704700BF46650040014B1870704700BF26650040014B1870C6
:400AC000704700BF36650040014B1870704700BF86650040014B1878704700BF66650040014B1878704700BF5665004008B501E0FFF7F6FFFFF7EEFF10F0100FF8D108BD6D
:400B000010B5134A137803F0C00343F009031370104C237843F001032370FF20FFF7BCFFFF20FFF7BFFF0020FFF7C2FF0020FFF7C5FF0020FFF7C8FFFFF762FD237843F07B
:400B400010032370FFF760FDFFF7D0FF10BD00BF756500409665004008B5054B1B7823B9FFF7CEFF0122024B1A70FFF78DFF08BD5181FF1F024A137843F08003137070479F
:400B800072640040014B1870704700BF06640040014B1870704700BF46640040014B1870704700BF26640040014B1870704700BF36640040014B1870704700BF826400404F
:400BC000014B1878704700BF62640040014B1878704700BF5664004008B501E0FFF7F6FFFFF7EEFF10F0100FF8D108BD08B5134A137803F0C00343F009031370243213783A
:400C000043F001031370FF20FFF7BCFFFF20FFF7BFFF0020FFF7C2FF0020FFF7C5FF0020FFF7C8FFFFF7ECFC054A137843F010031370FFF7E9FCFFF7CFFF08BD72640040CE
:400C40009264004008B5054B1B7823B9FFF7CEFF0122024B1A70FFF78DFF08BD5281FF1F024A137843F08003137070477B650040014B1870704700BF8B650040014B187890
:400C8000704700BF6B65004008B50146014800F0C3FB08BD29650040024B186820F07F40704700BF4965004008B50146014800F0B3FB08BD0965004008B501E0FFF7ECFF43
:400CC000FFF7DCFF10F0080FF8D108BD10B50B4C2046FFF7D9FF2046FFF7E6FFFFF790FC074A137843F010031370FFF78DFCFFF7E3FF0120FFF7BCFF10BD00BF74954200C6
:400D00009B65004008B5054B1B7823B9FFF7DEFF0122024B1A70FFF7A3FF08BD5381FF1F014B1B689864704708ED00E04001C0B2014B1870704700BF02E400E00422014B4F
:400D40001A60704700E100E00422014B1A60704780E100E010B50446FFF7F6FF2046FFF7DFFF0720FFF7E2FFFFF7E8FF10BD00BF08B500F09FF8803840B208BD08B500286A
:400D800003DBC0B280F0800001E08038C0B200F08BF808BD024B187800F00F00704700BF6F640040014B1870704700BF8F64004008B50F20FFF7F6FFFFF7ECFFFFF720FC04
:400DC000034A137843F010031370FFF71DFC08BD9F64004008B500F0BBF8802000F064F8044B1B7813B90122024B1A70FFF7E0FF08BD00BF5481FF1F08B500F0D1F88038CD
:400E000040B208BD08B5002803DBC0B280F0800001E08038C0B200F0BDF808BD024B187800F00F00704700BF67650040014B1870704700BF8765004008B50F20FFF7F6FFB6
:400E4000FFF7ECFFFFF7DCFB034A137843F010031370FFF7D9FB08BD9765004008B500F0EDF8802000F096F8044B1B7813B90122024B1A70FFF7E0FF08BD00BF5581FF1FB3
:400E8000024A137843F08003137070477B640040014B1870704700BF8C640040014B1878704700BF6C640040014B1870704700BF0C640040024B1B78024B1878704700BF43
:400EC0000C6400404C640040014B1878704700BF4C640040014B1870704700BF2C640040014B1870704700BF3C64004008B501E0FFF7EAFFFFF7D2FF10F0400FF8D108BDAB
:400F000008B5114B1A7802F0F8021A701A7802F0FC021A70FFF7EAFF8020FFF7DBFF8020FFF7C2FF0020FFF7B3FFFFF7B7FF8020FFF7D6FFFFF764FB044A137843F010038B
:400F40001370FFF761FB08BD7B6400409C64004008B5054B1B7823B9FFF7D2FF0122024B1A70FFF78DFF08BD5681FF1F024A137843F080031370704778640040014B187048
:400F8000704700BF88650040014B1878704700BF68650040014B1870704700BF08650040024B1B78024B1878704700BF0865004048650040014B1878704700BF486500402C
:400FC000014B1870704700BF28650040014B1870704700BF3865004008B501E0FFF7EAFFFFF7D2FF10F0400FF8D108BD08B5114B1A7802F0F8021A701A7802F0FC021A7065
:40100000FFF7EAFF8020FFF7DBFF8020FFF7C2FF0020FFF7B3FFFFF7B7FF8020FFF7D6FFFFF7EEFA044A137843F010031370FFF7EBFA08BD786400409865004008B5054BA5
:401040001B7823B9FFF7D2FF0122024B1A70FFF78DFF08BD5781FF1F10B5022001214FF4804241F6FF7300F085F9084C20700820012141F6FF72134600F09CF9607004480E
:4010800000F0B6F9012000F0B9F910BD5881FF1FB511000070B52C4C2078FFF7EFFA6078FFF7ECFA294B1B78FF2B03D1FFF756FB264B1870254D2A78104608210623FFF785
:4010C00067FB214E341DA4B2287845F6A0312246FFF772FB30782978FFF710FB6B78FF2B02D1FFF73BFB6870184D6A78104608210723FFF74DFB68782146154A92B2FFF7C5
:401100005BFB114C60786978FFF7F8FA20780121FFF798FA60780121FFF794FAFFF770FA0C4A137843F020031370FFF76DFA0A4B1A7842F001021A701A7842F002021A702C
:401140000222064B1A6070BD5881FF1F2881FF1F7C81FF1F9A6400407764004080E200E008B5074BDB6823B9FFF776FF0122044BDA60FFF78FFF00F0BDF8024B1B7808BDCC
:401180005881FF1F6464004008B500F0C1F808BDC0F10300034B33F81030034A1088181A00B270477C81FF1F8C81FF1F08B500F0B7F808BD704700BF08B50A280FD00C2839
:4011C00002D0082806D102E04FF4805209E04FF4807206E00020FFF7FDFA002201E04FF480620021094B198041F2883342F2107000FB0233064A82FB0302DB17C3EB22333F
:40120000044A1360044B198008BD00BF8481FF1FAD8BDB688881FF1F8C81FF1F10B5FFF7EFF90446194A137843F0010313701032137843F00103137002F5AA5208321378BD
:4012400003F0FE0343F0020313700422104B1A70013B1A7842F040021A701A7802F0FC021A70C822053B1A700222A3F597530C3B1A70084A137843F0080313700A20FFF7F3
:40128000ABFA2046FFF7C0F910BD00BFAB43004006590040275B004010B504460A280DD00C2802D0082804D101E0C42207E0442205E00020FFF78EFAC42200E08422034BDF
:4012C0001A702046FFF778FF10BD00BF0259004008B5064A137843F0060313700C20FFF7DBFF0022024B1A8008BD00BF015900408681FF1F08B5054B1B7823B9FFF7E8FF72
:401300000122024B1A70FFF789FF08BD6881FF1F024A137843F001031370704700590040114B1B889BB233B10F4B198809B201EB8101490001E00D4B19680D4B1A88821A9B
:4013400012B242F2107000FB02F0002A03DD01EBD1735B1003E001EBD17252105342034493FBF1F000B270478481FF1F8881FF1F8681FF1FF0B583B086460F4616461D4614
:401380000B4C01232370002200920192184671463A46FFF7BFF9207831462A46FFF794F920780221FFF77EF9207803B0F0BD00BF2A81FF1FF0B583B086460F4616461D4633
:4013C0000A4C0023237000930193184671463A46FFF7A0F9207831462A46FFF775F920780221FFF75FF9207803B0F0BD2B81FF1F014B1B685864704708ED00E04001C0B21E
:40140000014B1870704700BF01E400E00222014B1A60704700E100E0CBB20370C1F307234370C1F307418170704700BF0E4B70B51E460E4C0025E41AA410A54204D056F83B
:40144000253098470135F8E700F042F8084B094C1E46E41AA4100025A54204D056F8253098470135F8E770BDDC140000DC140000DC140000E414000010B5431E0A44914288
:4014800004D011F8014B03F8014FF8E710BD03460244934202D003F8011BFAE77047000000000000405100403000F051004010000000014000100014014000080040014066
:4014C000000A004C014000020050014020000000F8B500BFF8BC08BC9E4670474D00000099020000F8B500BFF8BC08BC9E46704729000000081500000881FF1F28000000A7
:401500006000000000000000000000000A0A595D7F800000030000000000E02EC05D00001800000000366E01FFFFFFFF00000000000000000000000000000000000000009B
:40154000000000000000000000000000000000000000000000000000000000000000000000000000000000000000000000000000000000000000000000000000000000006B
:40158000000000000000000000000000000000000000000000000000000000000000000000000000000000000000000000000000000000000000000000000000000000002B
:4015C00000000000000000000000000000000000000000000000000000000000000000000000000000000000000000000000000000000000000000000000000000000000EB
:4016000000000000000000000000000000000000000000000000000000000000000000000000000000000000000000000000000000000000000000000000000000000000AA
:020000040003F7
:0200000480007A
:4000000007520040025B004007640040046500403200014038010140450201403C03014053040140510501405606014060070140440801404F090140310A0140480B014097
:40004000480C01404B0D01403A0E01403C0F01404C1401405815014042160140581701404A18014050190140531A01404F1B01400B4001400E4101400C42014007430140C9
:4000800002440140044501400946014007470140084801400F490140114C0140044D01400B50014002510140004001800408084010201902600427842F848172820F830F4E
:4000C00086388A038C6F8F0F860F870F886F8B0D580459045C335F01817F82F38482850888F3893C8A0C8B418CC38D1090419104940F953C96F09742981C99189AE39C0865
:40010000A0FFA404A567A718A80CAB03AF04B01CB140B22CB31FB40FB520B6C0B902BA28BB88BF10D602D711D804D904DB04DC55DD50DF01004001200208055406400808BE
:400140000A010B800C810E18101011081340150117281D111E121F3024012616280829022C042F21301032093401360437203A203B803C813D033E184B305E206C026F14D9
:4001800074C076087728800884048520864187408D24C0F3C2FDC475CA75CCE7CEFCD620E240E60607020B090C020D010E05102013041414160A1902243F2704283F2C096F
:4001C0002E52304031023218330134203504360737083F1052805407580459045B045C255D205F018001820A83098502861087049002910492019302940195019602980177
:400200009A069D029F04A902AB04AF10B003B106B204B308B408B501B610B710BA02BB02BF10D401D804D904DB04DD40DF010001032005400A540C020E20130C14011714D5
:4002400018011A541D641E201F01210822912440254027282A402B042C203108328134203602380A3DA03E08581059885A015C445F21768080818A019310978299019A200C
:400280009B149C019D64A002A101A203A524AE21B440B502C08CC23EC4E0CA4CCCABCE73D6FFE604EA08000603080A100F1C140C1501170E180C1D1C1F0322012620280A8B
:4002C00029012B162F03300E3201331A34103620370F38023B885401580459045B0E5C405D305F0182088604870389038E029503960199019B029E08A210A303A503AA0452
:40030000AD03AE01B004B203B410B501B608B702BE44C062C104C205C403C5C0C6E0C80AC9FFCAFFCBFFCC62CDA0CEF0CF41D00CD804D904DA04DC32DD05DF01E640E7027A
:40034000E910EA30EB10ED10EE10EF12001001020402054106100A290B020E200F02101A12821340140116801710181819021A021B041C801D081E011F2022482302254003
:4003800027082B0A2C022D042F40324835203604388039013D083E2045294C014F12542058807B10855088428C209314940C9781980199419AA09CA09DA89E08A121A29107
:4003C000A430A514A620A704AA40AB20AC11AE60B010B201B610C0BAC2A6C4DECADCCC6ACE69D0E0D230D608DE02E408E8044020410145D046504721483A49FF4AFF4BFF55
:400400004DA04F0450185418580459045A045B045C335D525F01604062C06440654066C068C06AC06CC06EC085C08640872488B389848A0C8B108DB78E958F409208970819
:4004400099C19B129F07A02AA177A284A403A684A8B3AA04AD01AE40AFF2B030B20FB3F0B440B680B70FB802BA08BE51C004C604C9FFCA07CBFFCC40CD20CEF0CF05D0089D
:40048000D203D302D804D904DA04DB04DC04DD34DF01E040E1A8E240E3200090033204400520062009020E080F801229130214401504181419801A401B0821042284280186
:4004C00029022C422F403108329035203604382039083A803C403D043E203F4042404601471048404F0153805510561D5E02670669106A8079017B808002810482048340E5
:4005000084088680870189048A04902093469484951596289781980499229A209B029C909D889E189F10A20BA320A418A514A624A71AA810AD20AF08B004B102B201B72064
:40054000C0E7C258C43FCA99CC6ECE7ED031D680D830E001E20EEA04EE020001050106010A080B020C301030110412081418170819041A041C281E101F0122022438270128
:4005800028102A202E023002310832043304343835013601370239083E413F105280580459045B045F018302850889018D408E018F809180920193409401952097109B013B
:4005C0009C019D04A001A110A320A704A801AB08AC01AD02B3FFB601BF04D804D904DC03DF01030204020590062008440B800C110E200F01114112041420164217101A0173
:400600001D101E521F102020241225012708284C29412A042F10308A32103410350236083740386039073B803E286703774081418401860288A089018B048DC48E109060A3
:400640009106941095C19630970A981499429A0C9B109C029D019E10A08AA212A302A410A505AB10AF40B040B218B602C0F1C2FDC4FBCA4FCCFFCE6FE080E228E8E0EE80D3
:400680001301310156025736580459045B0F5C335D305F0181018202830A8402853087C089018A028B028D018E048F069401955297A19970A1F0A601A9C0AB30ADA0AE0CC3
:4006C000AF50B004B1F0B202B303B408B504B601B708BB08BE44D280D804D904DB04DC02DF0103020514068208440B400E10114112041410158016201C801D081E021F2012
:4007000020402340255026062710284029012B022F45300632103614384039023A043DAA4A024B805908621068AA690470107140720576807802850888048F2091029410D1
:4007400095449605980499169A24A302A4B0A508A601A810A980B408C0F1C22DC4ABCAB9CC67CEFBD602D804DE01E240E420E680E84003090A0F0B060C080D070E01146C50
:40078000160218B71C80205B2104220423022480286C2A013108320F3304347035013680370238A03E403F5440314105453C4620474E483B49FF4AFF4BFF4DA04F015018CF
:4007C000540F580459045A045B045F056040628064406540668068406A806C406D206E8081BF834089058BFA95CC971399CA9B25A577A983AB1CB30FB5F0D804D904DC0300
:40080000DF01030205A008040A420E280F02114012141420152116201D801E281F38200821102210231024402660272029202B202F4032103308382039013C503E024588A4
:400840004D024E824F06562A5C285E025F40660867047F208280862087408920910392429380954496059730980499149A149DA09F20A202A302A4B4A654AE08B610C0C130
:40088000C2EDC477CA86CC06CEB5D050D210D6F0D860DE40E020EA4006080A100C0214081A011B041E021F02220428042C012F01301F31013302350438023E0158045904C4
:4008C0005C335F01802482408470859E8604876089FD8A908B02930F94679610983799CF9B309E07A461A573A602A851A994AA22AB60AD30AE08AFC9B1FFB280B470B60F5C
:40090000BF01D40FD804D904DB04DF010060010605100680071008040A650E0A0F1010801140121D1628174019021B021D141E021F402040210122192740281029012B0192
:400940002DA02EA02F1030A433023613371038103A153C083E093F125D015E885F2081408501881089018A018B108C108D018E40C07FC2EFC4EFCA7BCCAFCE67D6F0E010F9
:40098000E240E4400010042C0611088009300BC90C4010141194136015CF17301809199E1A101B601E031F0F201C217322222430260C28802DFD2F02306033FF3480361F1E
:4009C00038223E103F0440344106450E46C047B0482949FF4AFF4BFF4EF04F44500C5608580459045A045B045C045D945F0166C06A406B0287018A0890029B019E03A6082F
:400A0000AE04B001B202B404B501B608BF10D280D804D904DB04DC32DD20DF010008011003820510070409120A010E400F02101413021610178018801A051D901E6021088B
:400A4000270829022A802D042E202F40300132943510360638203C103E083F80430A48144A08510252205A806240778078107B08804081108260860488018D808E048F10A1
:400A8000903091149228938094809601980499029AB89B129C019E409F0CA28AA3CBA410A508A634A910AC84AD80B204B404C04FC29BC4AECAE9CCEFCE74D003D204D6088F
:400AC000D808E006E210E640EA08EC20030117011D042108270631043308350137023F044030410245D046104752483A49FF4AFF4BFF4DA04F0450185407580459045A0437
:400B00005B045C235D225F01604062C06440654066C068C06AC06CC06EC0870C88088C048D019204930399089B049E01A202A401AD0CB104B208B308B404B501B603B702C3
:400B4000BE14BF05D40FD804D90EDB04DC39DF01002001800410052006200A420D040E080F801240130414401504180419081A022008214023A42440251026402710298005
:400B80002E012F20311032013640370439803A043F02460847044F015618572158085BA15C405E205F0978407A027B10811082C08408850289048B408E149020911492081F
:400BC000948096209780980499229AA09B039C819D08A28AA3DAA410A508A624AC10B440B502B640B710C063C279C43CCAC8CC55CE8AD060D6FFDE02E224E404E804EE0213
:400C000000100304060F080C09010A02100B120414071A20210122102302240C260128082A01300F3102322033043410350139203E1040344105453C4620474E483B49FF90
:400C40004AFF4BFF4DA04F015018540F580459045A045B045F056040628064406540668068406A806C406D206E80C051C9FFCAFFCBFFCF01D018D804D904DA04DC33DD09E5
:400C8000DF01E040E240E440E540E680E880EA80EC80EE80004001020510075008400AA00C010D100E20108012041420150117201E181F0126082744288829022B022D0172
:400CC0003101321038403A043E203F1242024502470848024D414F04562957015D805E0A5F10660867047A307E2081408201851088CC8B428D108F0590609241962097022D
:400D000098899A049B189D019E72A008A211A302A504AF10B208B402C079C27DC47ACA8DCC05CEAAD0C8D218D6F0D860DE40E262E690E8140B010D021102170219021D0290
:400D4000210229022A01300131023501405149FF4AFF4BFF4D834E034F015018580459045A045C335D095F016040624064406540668068806A806C806E80811085028701F2
:400D800089018B0A8D018F06950197029910A910B110B303B504B708B902BB08BF01C041C5ECC720C823C9FFCAFFCBFFCD83CE03CF01D018D280D401D604D804D904DA04E3
:400DC000DB04DC03DD99DF01E040E240E440E540E680E880EA80EC80EE800040020804400501071008880A800C040D10108812201408160119011A80211022322546272860
:400E000028882A012E203084310132183610370838603D893E104202464248024F0556025E405F0567407402764080808202831086108B208E1090609101925096A097402A
:400E4000988C9A209D019E529F20A008A210A402A506AE08B020B201B580C0B3C26DC4CECA25CC6FCEFCD098D208D6D0D880E001E240E620E880EC6012201680308032015E
:400E800037403B023E808F01C430CC70CE6003800620070162086680834096029F40A220A480C0B0D680D840E680868096029E80A220A480A608AB80AE20AF01E240E8501A
:400EC000EC2084809602A220A480AE08E210EA108F04E2025A046401A704D6031B0426088A0496049C01A704C608C801E40445208740B001B208D004EC04EE0120808A0153
:400F000096029D80A220A980C840E820198050045202740282208C069D80A222AA02B040C640D4A0DE20E480EA80002009081F4034015804668085089780A410A920B0106B
:400F4000C002C208C601CC01D603EE0182809E80B005EC05003D083D0A3D0C0D0E09101D11011A1D1B011C091D01003F100A00000B00000000C0D4000400000404000400ED
:400F8000000000001400000000C0E000006262006000000000030300030000000001000000000000000000000000000000000000000000000000000000000000000000004F
:400FC00000000000000000000000000000000000000000000000000000000000000000000000000000000000000000000000000000000000000000000000000000000000F1
:4010000000000000000000000000000000000000000000000000000000000000000000000000000000000000000000000000000000000000000000000000000000000000B0
:401040000000000000000000000000000000000000000000000000000000000000000000000000000000000000000000000000000000000000000000000000000000000070
:401080000000000000000000000000000000000000000000000000000000000000000000000000000000000000000000000000000000000000000000000000000000000030
:0200000490006A
:0400000000004005B7
:0200000490105A
:04000000BC90ACAF55
:0200000490303A
:0200000002A05C
:0200000490402A
:4000000000000000000000000000000000000000000000000000000000000000000000000000000000000000000000000000000000000000000000000000000000000000C0
:400040000000000000000000000000000000000000000000000000000000000000000000000000000000000000000000000000000000000000000000000000000000000080
:400080000000000000000000000000000000000000000000000000000000000000000000000000000000000000000000000000000000000000000000000000000000000040
:4000C0000000000000000000000000000000000000000000000000000000000000000000000000000000000000000000000000000000000000000000000000000000000000
:0200000490501A
:0C00000000012E16106900012E231309C8
:00000001FF